:020000041000EA
:1000000000B5324B212058609868022188439860DF
:10001000D860186158612E4B002199600221596106
:100020000121F02299502B49196001219960352056
:1000300000F044F80222904214D00621196600F024
:1000400034F8196E01211966002018661A6600F04E
:100050002CF8196E196E196E052000F02FF8012189
:100060000842F9D1002199601B49196000215960AB
:100070001A491B48016001219960EB211966A021F2
:10008000196600F012F800219960164914480160C1
:100090000121996001BC002800D000471248134993
:1000A000086003C880F30888084703B5996A0420EC
:1000B0000142FBD001200142F8D103BD02B5186610
:1000C0001866FFF7F2FF186E186E02BD00000240BE
:1000D000000000180000070000035F00212200005C
:1000E000F4000018222000A00001001008ED00E03C
:1000F00000000000000000000000000074B24E7A12
:1001000000200420F7010010C3010010C5010010F9
:10011000C1010010C1010010C1010010C101001097
:10012000C1010010C1010010C1010010C701001081
:10013000C1010010C1010010C9010010CB01001065
:10014000CD010010CD010010CD010010CD01001037
:10015000CD010010CD010010CD010010CD01001027
:10016000CD010010CD010010CD010010CD01001017
:10017000CD010010CD010010CD010010CD01001007
:10018000CD010010CD010010CD010010CD010010F7
:10019000CD010010CD010010CD010010CD010010E7
:1001A000CD010010CD010010CD010010CD010010D7
:1001B000CD010010CD010010CD010010CD010010C7
:1001C00000BE00BE00BE00BE00BE00BEEFF3058054
:1001D000103800BEF2EB8871AC4D0010D84D001005
:1001E0003802001090A31AE71E481F49086006C88D
:1001F00081F3088810471D480068002801D019487D
:10020000F3E70DA40ECC002902D000F012F8F9E7B4
:100210001749184A002000E001C19142FCD116495B
:100220008847164988471649884700BEFDE701C937
:1002300001C29A42FBD37047D84D0010C000002085
:10024000F8020020105000100000042000000420DC
:1002500010500010001004200010042000000000C6
:10026000704700000000000008ED00E0000000D032
:10027000F8020020F0060020053B001041040010A9
:10028000C53A0010F8B5C04606480749091A8B1050
:10029000C90FC91810B5491003D0044B002B00D06A
:1002A000984710BDF8020020F8020020000000006E
:1002B000054B10B5002B03D00449054800E000BFF2
:1002C000FFF7E2FF10BDC04600000000B4040020AC
:1002D0000042001010B503F0A4FE040003F0A1FEDC
:1002E000A04703F094FEF6E7A0235B051868431EC1
:1002F0009841C0B270470000F0B585B0060001F02B
:1003000049F8009001910124FE25AD051DE0200073
:1003100002F016FA071C8121C90502F008FA011C37
:10032000381C02F004FA071CFE21890502F0DFF9EF
:10033000011C381C02F0E5F9011C02F0DDF9011C7A
:10034000281C02F0F4F9051C0134B442DFDD01F091
:1003500021F802900391FFF7C7FF0100029A039B67
:10036000009E019F921BBB41034C200003F01EFD29
:10037000281C05B0F0BDC0460042001010B5A023F7
:100380005B051860FFF7B0FF10BD0000F0B5CE466A
:10039000474680B585B0814600F0FCFF0090019192
:1003A000012398460026234F29E0404601F020FE15
:1003B00004000D000022204B01F0ABFD02000B00F9
:1003C0002000290001F0A5FD04000D000022194BBA
:1003D00001F06FFD02000B002000290001F07BFD01
:1003E00002000B0001F06EFD02000B00300039002E
:1003F00001F08FFD06000F0001239C46E044C84534
:10040000D3DD00F0C7FF02900391FFF76DFF0100FD
:10041000029A039B009C019D121BAB41074C2000DC
:1004200003F0C4FC3000390005B0C0BCB946B0468A
:10043000F0BDC0460000F03F000010402442001014
:10044000F0B587B003F07EFCFA20C00000F0AEFEED
:100450003B4803F051FE0020FFF790FF394803F0BE
:1004600076FC00F097FF04000D00374E3000FFF7D8
:1004700043FF3000FFF78AFF00F08CFF02000B0003
:10048000121BAB413148070003F090FC304803F0E9
:100490005EFC00F07FFF049005912E4D280003F0D4
:1004A000B6FD300003F0B3FD3000FFF76FFF03F03F
:1004B000B8FD00F06FFF02000B0004980599121AB6
:1004C0008B412548040003F071FC0120FFF756FF23
:1004D000224803F03CFC00F05DFF029003913000E5
:1004E000FFF70AFF3000FFF751FF00F053FF020053
:1004F0000B0002980399121A8B41380003F056FC46
:10050000174803F024FC00F045FF009001912800FB
:1005100003F07DFD300003F07AFD3000FFF736FF79
:1005200003F07FFD00F036FF02000B0000980199F8
:10053000121A8B41200003F039FC002007B0F0BDF7
:10054000D502001048420010A08601006C42001045
:1005500090420010F9020010B0420010D04200108A
:10056000F842001010B58300084A9A181468402217
:10057000544080322240064CA44663441A60C000B6
:10058000044B9C466044416010BDC04604C001401D
:1005900004D00140004001400FB400B583B00848CA
:1005A00003F0D5FB049B002B07D005A9019118008F
:1005B00003F0DCFB034803F0CAFB012003F080FAE0
:1005C0001C4300102C430010EFF3108072B6034B55
:1005D0001B68002BFBD0BFF35F8F70472C0100D04E
:1005E000BFF35F8F024B00221A6080F310887047C0
:1005F0002C0100D0F8B506000C001500FFF7E4FF51
:10060000E308F718F15C07222240012393400B42D4
:1006100005D1DBB20B433B70FFF7E2FFF8BD2100D1
:100620002800FFF7B9FF0000054A1078431CDBB231
:100630001370172B02D9130010221A707047C0468E
:1006400040020020002307E0054A9A189200BFF3F9
:100650005F8F0021116001331F2BF5D97047C04611
:1006600040000034074B9B68103080001950BFF3E6
:100670005F8FBFF35F8F044B0021196082F31088F6
:100680007047C04600ED00E0240100D000487047EC
:1006900000E400E010B5FFF7F9FF002302E0034A91
:1006A00004C00133072BFAD910BDC046808080807A
:1006B00010B50388DA0A1C2A05D15B055B150233E5
:1006C0005B00C01810BD034B034A16210348FF31DD
:1006D00003F0FCF930430010504A0010484300106A
:1006E00010B5091A0B1F0A4A88180A4A904208D8FE
:1006F000C90706D45B105B055B0D0748184380B241
:1007000010BD064B064A08210648FF3103F0DEF90A
:10071000FC070000FE0F000000E0FFFF9043001008
:10072000444A00104843001010B5091A04394A0819
:10073000090B08D14905490D064B0B430380064BB5
:100740001343438010BD054B054A10210548FF3176
:1007500003F0BCF900F0FFFF00F8FFFFC0430010FA
:10076000204A00104843001001238340034A1068C8
:100770001840431E9841C0B27047C04600E100E0F7
:10078000002A05D0044BC0225200995019607047CE
:10079000014A8023D150FAE700E100E010B50A00D9
:1007A0001F230340012199404009FFF7E9FF10BDD5
:1007B000024B9B6810308000C058704700ED00E08D
:1007C00070B504000D00EFF3108672B60C4B1B6879
:1007D000002BFBD0BFF35F8F2000FFF7E9FF094B31
:1007E000984201D0A84205D1320029002000FFF72D
:1007F00039FF70BD044B054A0548E72103F066F94F
:10080000240100D0CD010010D0430010604A001038
:1008100048430010F0B5CE46474680B583B0060089
:100820000D00EFF3108872B64F4B1B68002BFBD006
:10083000BFF35F8F4D4B9A6834001034A300D75834
:100840004B4B9F4207D0AF4200D18AE00197494B02
:10085000FB1A2F2B09D9424639003000FFF702FF5F
:1008600003B0C0BCB946B046F0BD3000FFF77CFF16
:10087000814600213000FFF791FFBFF35F8FEFF358
:100880000581002901D08C4211D10123019C9C4398
:100890000020A3689D4212D00622A256002A0DDB3A
:1008A00053009B189B00334A2000D418F1E7324BC9
:1008B000324AFA213248FF3103F008F920009D4204
:1008C00049D106256557002D2BDB2A4B6A005219AA
:1008D00092009B189A68A260DA79E2719B795BB208
:1008E000A371002B0FDA2748A080224B6A0052190F
:1008F00092009B18244A117899711570494630006E
:10090000FFF74CFFA7E7680040198000194BC0189B
:100910000430FFF7CDFE0100231D1800FFF7E0FEB5
:10092000E2E7002912D100280ED0FF238371174B74
:10093000838015490B78A3710E4A154BA41A6441A4
:1009400063431B0D0B70D9E7094FF2E71149201DD6
:10095000FFF7EAFED2E7104B084A09480F4903F0B7
:10096000B5F8034F77E7C046240100D000ED00E062
:10097000CD0100104402002008440010304A00104D
:100980004843001001BD0000EC06002001BDFFFF40
:10099000AAAA00007E0200203C4400103B02000096
:1009A000F8B5012202432D4BD31A2F2B28D8EFF391
:1009B0000583002B2BD0EFF3108472B62849096809
:1009C0000029FBD0BFF35F8F244D26490600761B1C
:1009D00076417143090D4DB2234989689B00C9587E
:1009E00091421AD00021032931D81C4B4A005218D9
:1009F00092009B189B795BB2AB421ED00131F2E7AB
:100A00001A4B1B4A9D211B48890003F05FF81A4BC3
:100A1000174A1848194903F059F8134A92681849B7
:100A2000D150184B1A7882711D70BFF35F8F0C4B39
:100A300000221A6084F31088F8BD084B4A0056184B
:100A4000B6009E19FF27B7710F4AB280E9E70F4B36
:100A5000074AA2210748890003F038F84402002021
:100A6000240100D0AAAA000000ED00E044440010D8
:100A7000044A0010484300106C4400107702000044
:100A8000CD010010EC06002001BDFFFF78440010EE
:100A9000024B9C466144890001607047400000346D
:100AA00010B50400FFF7C0FD01002000FFF7F0FFC4
:100AB000FF232371BFF35F8F10BD10B50400FFF754
:100AC000B3FD01002000FFF7E3FFFF2323710023A4
:100AD0006371BFF35F8F10BD10B50D4C09E00D4B76
:100AE0000D4A0E481A2102F0F1FF2000FFF7D8FF4F
:100AF00008340B4B9C4209D22368002BF5D0012B04
:100B0000EDD12000FFF7D9FF0834F2E710BDC04651
:100B1000E802002080440010A04A0010A044001009
:100B2000F802002030B5846A151B0B1D9B001B5872
:100B30001B1B9D4204D3046A01238B40234202D134
:100B4000043189000A5030BD00040843704700009A
:100B50000A4B1968EFF3108372B60A68002AFCD0BA
:100B6000BFF35F8F054A1268BFF35F8F00211160EA
:100B700083F3108840BF002000217047E00600206A
:100B8000F0B5DE4657464E464546E0B587B0EFF332
:100B9000058303221A409246AE4B9200D7583B7809
:100BA000534507D10123524693409946AA4B4A46E2
:100BB0001A6025E1A94BAA4AAA48922102F086FFB1
:100BC0007A6973009B19DB009046984443469C6801
:100BD000DD68A54800F0ACFB001BA941002900DA44
:100BE00016E1002D74DB43461B699B469F4B9B45DA
:100BF0004FD00823F85E4346598889B2FFF7A4FF17
:100C000043465969D847029003910299039A0B0011
:100C1000100013435CD013000A00002847DAA41A1E
:100C20009D41009401954346009C019D9C60DD60C0
:100C30000021595E002900DAEAE078694B005B1870
:100C4000DB00C3189A68DB68A41A9D41002D00DA06
:100C5000DEE039813D000835844604912A0005977D
:100C6000B346009E019F049B002B2ADB0023D45E29
:100C700063001B19DB0063449C68DD6830003900A9
:100C8000001BA94100291CDB1A000021595E0491B8
:100C9000E9E743465B699B461B695846984700282D
:100CA00016D05B461A685B6802920393ADE76E4804
:100CB00000F03EFB029B039C1B184C4100930194E7
:100CC000B1E70499059F5E464346198016809FE070
:100CD000434600229B5E3B813A69EFF3108372B674
:100CE00011680029FCD0BFF35F8F02217A5E414674
:100CF0000A807E803A69BFF35F8F0021116083F321
:100D0000108885E03969EFF3108372B60A68002A0B
:100D1000FCD0BFF35F8FB88800B201225242BA8084
:100D20003A69BFF35F8F0021116083F310880500DB
:100D3000BC461CE0049300229A5E002A0EDB049B52
:100D40000021595E4B005B18DB0063449868D9684A
:100D500034003D00241A8D41002DEBDA04995D46E4
:100D6000009B9C4644460D800023E55E2280002DBA
:100D700012DB634658696C006419E4000419A66824
:100D8000E7686146083108229A5EAB4604916346E3
:100D90000093A0468446D0E767463EE00023BB713F
:100DA000390008310823F85E0EE001246442E5179B
:100DB0009460D56008243B5F834204D00E800824F1
:100DC0003B5F138038813000431C29D07C6943008D
:100DD0001B18DB00E218E65E53881BB2002BE4DB35
:100DE0001100F0E722002B0051461F48FFF79AFE42
:100DF0001D4800F09DFA241A8D41002D22DC1FD0E1
:100E0000194B4A465A630823FE5E002E00DBD7E6E4
:100E1000BB881BB2002B00DB74E7BB79002BBDD174
:100E20000823FA5E002A0DDB796953009B18DB006A
:100E3000CB189C68DD68631CD4D16B1CD8D0D1E77B
:100E4000002CDDD040BF07B0F0BCBB46B246A9467F
:100E5000A046F0BDCC0400203C7005403845001091
:100E6000CC4A00106445001000400540810B001082
:100E700070B504000D0011000126AE400662280086
:100E8000FFF79EFC01212800FFF788FC024B9C46DF
:100E90006444266070BDC04638200000F8B5CE46D8
:100EA000474680B50600894690461F00C160FFF79F
:100EB000BBFB154B9C466044800030614346337059
:100EC000BBB27381D0221206127872700122524294
:100ED0003281B2809B187380002406E0621E736921
:100EE00065002D19ED005A530134BC42F6D3074B6F
:100EF00042469200D650064A41464846FFF7B8FFA0
:100F0000C0BCB946B046F8BD40000034CC04002057
:100F1000810B001010B5064B1B69002B01D0044853
:100F200010BD044B044A0548652102F0CFFDC046C0
:100F30008C020020A8450010B44A0010644500103F
:100F4000F8B504000569EFF3108072B6296800292E
:100F5000FCD0BFF35F8F0221665E6569710089195D
:100F6000C9006D18002E02DB0027E95F618021694E
:100F7000BFF35F8F00270F6080F31088002E2CDBFB
:100F80000699296107996961AA60EB606B88013352
:100F90005B04590C002B00D1012169803000FFF760
:100FA000D3FD2169EFF3108372B60A68002AFCD0E2
:100FB000BFF35F8FA2882A80A6802269BFF35F8F6C
:100FC0000021116083F31088E368217801228A40B0
:100FD00003498C4663441A60F8BD01204042FBE798
:100FE0003C20000070B582B0060014001D0008AB64
:100FF0001B78002B07D100F0CDF922002B00121A2C
:101000008B41002B0ADB079B0193069B0093220078
:101010002B003000FFF794FF02B070BD0020FBE70B
:10102000F0B5C64600B584B00500884616001F001E
:101030000AAB1C78FFF76EFF0294019700962A0016
:101040004346FFF7CFFF04B080BCB846F0BD0000B8
:1010500030B504000A1443899A422EDA40695300DD
:101060009B18DB00C3182569EFF3108272B628685D
:101070000028FCD0BFF35F8F588885B20904090CA3
:10108000884212D000202369BFF35F8F00211960CE
:1010900082F31088002811D0E368217801228A4069
:1010A00007498C4663441A6008E00649294389B21F
:1010B00059800123A3710120E5E7002030BDC0461F
:1010C0003C2000000080FFFF10B50400FFF722FF66
:1010D0002100FFF7BDFF10BDF0B583B006000F0083
:1010E000EFF30583002B1AD106246442E517A419F7
:1010F0007D418D4202D803D1844201D900240025CC
:1011000000F048F922002B00121A8B41002B0BDC57
:1011100008D03000390000F04FF903B0F0BD164898
:10112000FFF73AFA002AF4D0144A00230093200073
:101130002900FFF775FF002813DAEAE7104B19685A
:10114000EFF3108372B60A68002AFCD0BFF35F8FFA
:101150000B4A1268BFF35F8F0021116083F3108880
:1011600020BF084B5B6A9D42E8D80649896AA142C4
:10117000CFD29D42CDD1E1E7CC450010510B0010FC
:10118000E00600200040054070B504000D0000F0AE
:1011900001F900196941002902DBFFF79DFF70BDCD
:1011A000012040420049F8E7FFFFFF7F10B5FA2217
:1011B00092000023002101F07DFAFFF7E5FF10BD4A
:1011C000F0B5CE46474680B583B005000C00EFF37E
:1011D0000583002B15D03F4B5B6A8B4209D33D4AF8
:1011E000926A82420BD28B4201D0012002E00020A1
:1011F00000E0002003B0C0BCB946B046F0BD0120FD
:10120000F8E7FFF787FEC3689946037898462E00F3
:101210002700484600F08CF802000B00B61A9F41E8
:10122000434604339B004A469B581B1A0022BA428D
:101230000FDC0CD020BF274B5B6A9C422DD8254A7F
:10124000926AAA422BD29C4225D00120D2E7B34217
:10125000F0D9214A0023009328002100FFF7E0FE87
:1012600000281EDD1B4B5B6A9C4205D8194A926A16
:10127000AA4202D29C4200D120BFFFF725FF154BA6
:101280005B6A9C4221D8134A926AAA421FD29C42AE
:1012900019D00120AEE70020ACE70020AAE701202A
:1012A000A8E70C4B5B6A9C4209D80A4A926AAA4298
:1012B00007D29C4201D001209CE700209AE7002041
:1012C00098E7012096E7002094E7002092E70120AC
:1012D00090E7C04600400540510B001000487047A1
:1012E0000040054010B50B4B1B69002B04D00A4889
:1012F0000A21FFF7CDFB10BDFFF7F0FF040003212B
:1013000000F00CF80348102303222100FFF7C6FD6C
:10131000EDE7C0468C020020E006002010B5024A2E
:101320000248FFF767F910BD1C460010800400203A
:101330000200436A906A1900536A9942FAD17047D1
:10134000416A00E0416A9942FCD300E0416A994257
:1013500002D1816A9142F9D37047F0B5C64600B513
:10136000804614001D00FFF7E3FF06000F00220077
:101370002B0092197B41994202D804D1904202D9A4
:1013800001225242D3174046FFF7DAFF80BCB8462D
:10139000F0BD000010B50248FFF7CAFF10BDC046FF
:1013A0000040054010B502000B000248FFF7D5FFD2
:1013B00010BDC0460040054010B502000B000248B9
:1013C000FFF7BEFF10BDC04600400540074B9842E6
:1013D0000AD0162301229A40054B1A60054B1B6860
:1013E00011009943FAD170471723F3E700800340B7
:1013F00000F0004008C0004070B5046BE30701D462
:10140000200070BD0B4BC3180B4A1A60456A836AF3
:10141000AD01ED18AD02062000F016F9074900F005
:101420000DFB0100280000F009FB0021FFF7BAFFC7
:10143000E6E7C04630300000010300004E0E000019
:1014400070B504000E001500FFF7D6FFE36A5E409A
:101450003540024BE3181D60206370BD2C10000066
:1014600070B505000C00062000F0EEF8C000210069
:1014700000F0E4FA0130C60907D00E4B9E4215D8A1
:10148000400834003F26064000E001246C62AE6252
:10149000002200212800FFF7D3FF062000F0D4F837
:1014A0008000A101891900F0C9FA70BD0026024C24
:1014B000ECE7C046FEFF0000FFFF0000002909D056
:1014C0000A22064B9C46604443425841044B40006C
:1014D000C252704780225200F3E7C0460080FCBF32
:1014E000E406002070B504000D00062000F0ACF802
:1014F00000281ED0104B9C421CD016220123934082
:101500000E4A13602000FFF761FF00212000FFF763
:10151000D5FF29002000FFF7A3FFE26A70235A409D
:101520000E331340064AA2181360064B23630323AD
:10153000A36470BD1722E1E70080034000E0004093
:101540002C10000001030000F8B5D646474680B5D0
:1015500006000D001700984644002418A400294BEB
:101560009C4664446368089A934200D26260331FC9
:10157000DBB29A46012B2ED980221201C0239B0197
:10158000E3181A60204BB200D158002907D05869DF
:1015900000F054FA013043001B18033BFDD27F01D9
:1015A00023685F40E0233B4080225201A218136071
:1015B0005346012B1AD980239B01E3188022120184
:1015C0001A60089B6360104BB6004246F250C0BCE4
:1015D000BA46B046F8BD012DCED10322C0239B01EF
:1015E000E3181A60A368DB07FCD5D8E721686940D7
:1015F00003230B401360A3680122AA401A42FAD0C9
:10160000D9E7C0460080004084040020F0B583B0D4
:1016100005000E0017001800089900F00FFA0300EB
:10162000089A140200943A0031002800FFF78CFF5A
:1016300003B0F0BD10B582B0802464000094FFF7C1
:1016400083FF02B010BD0000014B8000C0587047FE
:1016500084040020F0B5C64600B504000E00170053
:101660001D00374800F0EAF98046364BFA18364B31
:101670009A4239D80100380000F0E0F90200103A2F
:1016800098235B009A4235D86B1E062B38D8069BF0
:10169000013B062B34D83F09474537D32D04069B21
:1016A0001B031D432368002B36DB284B9C4244D090
:1016B0000C2201239340264A1360264A1360264ACF
:1016C0001268190091430A1EF9D12660A060234BCD
:1016D000E31821321A602268002AFCDAE560082249
:1016E0001A6080BCB846F0BD1D4B1E4A1E48112131
:1016F00002F0ECF91D4B1B4A1B48192102F0E6F9D8
:101700001B4B184A18481C2102F0E0F9194B154AE6
:101710001548232102F0DAF922683F231340B3422F
:10172000C3D1A3681B051B0D8342BED1E368EE2223
:10173000D2021340AB42B8D1D3E70D22B9E7C0467D
:10174000001BB70080E84BD380F8A93200C00240EC
:1017500000E0004000F0004008C0004004300000FD
:1017600040460010E44A001090460010D846001091
:10177000F44600104047001080239B000B43014AB1
:10178000D36270470080054010B5010018231B8804
:1017900014221088984710BD10B5010018231B882B
:1017A00016221088984710BDF0B5C64600B5070050
:1017B0000E0000250123984600E00135B5420AD20B
:1017C000AC003C192068FFF7DFFF20600028F4D14F
:1017D00000239846F1E7404680BCB846F0BD0000C3
:1017E000074BAA2212011A608D225200DA60054BC3
:1017F000054A1A60024B5B68002BFBDA7047C04653
:10180000004002400060024000B0FA0010B5040041
:1018100001E008CC9847024B9C42FAD310BDC04669
:10182000FC4100107047000010B50248FFF7EEFFC2
:1018300010BDC046C041001010B50248FFF7E6FFDA
:1018400010BDC046F4410010054B064A1A60064B15
:10185000064A1A60064B1A68044B9343FAD1704744
:1018600000E00040BFCDFBFE00F00040FE7F3C00EA
:1018700008C00040044BDB6C002B03D1034B8022DB
:10188000D2021A607047C046000011504C2011501F
:10189000044B054A1A60054B1B68DB43DB01FAD198
:1018A0007047C04600F00040FFFFFF0108C0004045
:1018B000034B40229A675A671A67DA667047C04638
:1018C00000F0014010B5FEF7BDFE10BD70B5044D2F
:1018D000A968044CC022200000F0F4FFAC6070BD89
:1018E00000ED00E00000002070B50420FFF7ACFE22
:1018F000064900F0A3F805000024002C00DD70BDAF
:10190000E0B22900FFF738FF0134F6E740420F004C
:1019100030B583B0274B00229A67FFF761FF264B53
:1019200001221A60234B5B6C012BFBD1234B03225A
:101930001A60204B9B6B012BFBD1013300930433C6
:101940001F4A01211F48FFF785FE052300931E4A09
:1019500001211E48FFF77EFE1D4B002202210420BC
:10196000FFF768FE1B4D2B00002201210520FFF729
:1019700061FE194C2300002200210720FFF75AFEC8
:101980002300002200210820FFF754FE8023DB0003
:1019900000932300002200210920FFF737FE2B00CF
:1019A000002200210620FFF745FEFFF79DFF03B050
:1019B00030BDC046008000403CB0004030B0004028
:1019C000002F685900800240008C864700C002400A
:1019D000001BB70040597307006CDC02014804216A
:1019E000014B1847B0020020A9170010124A936F4C
:1019F0009B0815D29066D166002905D0FFE7FFE766
:101A0000FFE7516F106F704704B580210906C217B8
:101A10005140002800D0C84302F0C2FB002104BDA1
:101A2000F0B5146E556E576F166FFFF7E3FF14662F
:101A3000556657671667F0BD000000D0114A936FD6
:101A40009B0813D210665166002905D0FFE7FFE717
:101A5000FFE7516F106F704704B5002801D00020D8
:101A6000C04302F09DFB002104BDC046F0B5146EDA
:101A7000556E576F166FFFF7E5FF1466556657678B
:101A80001667F0BD000000D094464A4A926F920853
:101A9000624601D228E0C046F0B5464E346E756EFF
:101AA000776F366F00F020F89446424A1466556608
:101AB000576716676246F0BD94463E4A926F920899
:101AC000624601D254E0C046F0B53A4E346E756EAF
:101AD000776F366F00F04CF89446364A14665566B8
:101AE000576716676246F0BD002B24DB11D0002932
:101AF0003EDA00B5C943404200D1013100F038F868
:101B0000C943404200D10131DB43524200D101338D
:101B100000BD002AEBD1002801D1002905D000200A
:101B2000C90FC90701D1C043410800B502F030FB1D
:101B30000022002300BD00B500290ADBDB4352422E
:101B400000D1013300F014F8C943404200D1013103
:101B500000BDC943404200D10131DB43524200D1B4
:101B6000013300F005F8DB43524200D1013300BDE0
:101B7000002923D1002B18D1002A0CD0BC460D4FD0
:101B800038667A6600210023FFE7FFE7FFE77A6FF8
:101B9000386F67467047002801D00748010000B53C
:101BA00002F0F6FA0022002300BD02000B00002024
:101BB00000217047000000D0FFFFFFFF002B00D086
:101BC000BFE0130C28D1002AE7D080B4114F39664A
:101BD0007A66FFE7FFE730B4040C7B6F396F1B04B4
:101BE00023433B667A66FFE7FFE7FFE7C04684B220
:101BF0007B6F3D6F1B0423433B667A66FFE7FFE77D
:101C0000C04600232C042D0C7A6F386F00196941EF
:101C1000B0BC7047000000D0F0B594460025140E0B
:101C200001D112020835140F01D112010435940FAD
:101C300001D192000235D40F01D152000135D40BED
:101C40000134254F7C66254C3C660E0C93B2FFE7B1
:101C5000FFE7FFE73C6F6643360C7703BE467343EE
:101C6000DF0B5B04C01AB941130C7343DB18C91AAC
:101C7000CE086643360CB64493B273431F0F1B0164
:101C8000C01AB941130C73431F0B1B05C01AB9418D
:101C9000860D8F023E436643360C092D24DB520A23
:101CA0007243801A7703460A6643360C16235B1B81
:101CB000DE40DF40BF1964466643821B7046043530
:101CC00006330100D940A840C01900D30131A24217
:101CD00006D20023F0BD0000000000D0FFFFFFFF90
:101CE000121B0130F3D3F1E709277F1BFE40644646
:101CF000A2B27243801A00D20139220C7243130C33
:101D00001204821A99410B00704604351337010002
:101D1000F940A840801900D30131002B02D1A24222
:101D20000AD2F0BD013000D30131121BFAD2013BBF
:101D3000F8D1A24200D2F0BD013000D30131121B14
:101D4000F7E7F0B51C0C00D080E00CB400251C0AAD
:101D500004D11B02160E3343120208351C0B04D1AA
:101D60001B01160F3343120104359C0B04D19B0059
:101D7000960F334392000235DC0B02D192185B417F
:101D800001351C00971864410134464F7C66464C6F
:101D90003C660E0CFFE7FFE7FFE7C0463C6F66437B
:101DA000360C7703BE4697B27743C01B00D2013989
:101DB000C01B00D201399FB27743C91BC91B170C46
:101DC00077437E04FF0B801BB941CE086643360C77
:101DD0000C2D33DBB644120B1F053A431B0B97B295
:101DE0007743C01B00D201399FB27743C91B170C40
:101DF00077433E043F0C801BB941860D8F023E4362
:101E0000664329277F1BFE400C3D7746AF40BF1934
:101E100030BCA2B2ABB272437343801A9941220C18
:101E20007243130C1204801A994102000B0001370F
:101E3000001BA941F9D2781E0021F0BD0C277F1BA1
:101E4000FE4077467F0BAF40FF19E0E700245D1CA2
:101E500007D0144F7D663966FFE7FFE7FFE7FFE72E
:101E60003C6F95B29EB265436643401BB141150C71
:101E70001E0C6543664336042F0C3E432D04401B65
:101E8000B141994204D202000B0020000021F0BDB4
:101E900001D19042F7D3801A994101349942F2D38B
:101EA000F6E70000000000D0FFFFFFFF4840414080
:101EB000484018B41B4B5B68FC46019308BD04DF27
:101EC0008721001018B4174B1B68FC46019308BD0E
:101ED00000DF912100109446134A926F920809D2B4
:101EE000624618B40F4BDB68FC46019308BD0CDF5B
:101EF000492400100C4AF0B5146E556E576F166FDA
:101F00006246FFF7EEFF084A146655665767166784
:101F1000F0BD18B4034B9B68FC46019308BD08DF75
:101F2000ED220010DC040020000000D0FFB550407E
:101F30004240504059404B40594000E0FFB5154FDA
:101F40004C00640D03D0BC4204D10C0314D8002013
:101F5000090D09055C00640D03D0BC4204D11C03CB
:101F60000AD800221B0D1B0501264B4009D44B400B
:101F700003D58B4200D18242FFBD9942FCD19042F1
:101F8000FFBD0B43DB1803431343F5D0C943491886
:101F9000FFBD0000FF07000000B5FFF7CFFF804145
:101FA00000BDC04600B5FFF7C9FF01D9002000BD44
:101FB000012000BD00B5FFF7B9FF01D9002000BD29
:101FC000012000BD00B5FFF7B1FF804100BD012039
:101FD00040054A00121804D85A00121801D80020EF
:101FE00070470120704700000021002805D170478C
:101FF000C1174840401AFAD0C90713B5064B1B68F1
:1020000098470CBC441CA2401005120B0349091B45
:1020100009051943114310BDDC0500201F04000011
:1020200010B54C00620D8023D218DB00D21A5B057C
:102030007E2A10DD9E3A13DACC17090349081943AA
:102040005242D140640001341532202A05DAD040D2
:102050000843604310BD002010BD0846604310BD1A
:10206000C80FC018013810BD18B4044B5B6AFC4699
:10207000019308BD24DFF92500100000DC040020D6
:1020800070B513231C78012C12D0012C12DC214BCB
:10209000214A93642148FFF777FB214B186070BDFC
:1020A0001C491D4A9800815001331F2BF8D9ECE7D9
:1020B0000023FAE71B48FFF76FFB05001A48FFF7FC
:1020C0006BFB023803789B007F2B09DD12488022CE
:1020D000290000F0F7FB022C08D0022CDADCD6E74E
:1020E000124B134A1348332101F0F0FC124B1A88AB
:1020F000B5231B029A4209D1104B1A88104B9A4201
:1021000004D1104B1A88104B9A42E6D00020FEF7FB
:1021100043FAC0464D210010DC0400204C3300007F
:10212000DC05002053440000534600005C470010CB
:10213000F04A0010A047001054380000D8380000C2
:10214000494600009C3800005946000007B560462B
:10215000002800D100BE01880A0A0230DF2AFAD125
:10216000C9B2820804D3028840880004104300E00A
:102170000068024A5050039007BD0000DC040020B4
:102180000FB403BC0CBCF0B50124E407634000E0CD
:10219000F0B50C0DCF0F661E3605891B640503D301
:1021A000C943404200D30131640D03D0661CF60AD6
:1021B00007D0E41B00207F00791C89078912803C2E
:1021C00024031D0DDF0F6E1E36059B1B6D0503D30B
:1021D000DB43524200D301336D0D03D06E1CF60A6F
:1021E00007D0ED1B00227F007B1C9B079B12803DCC
:1021F0002D032F1B661B58D4A446202E46DA203709
:102200001400BC401D00BD40F24033412A438018F9
:102210005941CB0F05D0C943C0430022644250410D
:10222000514162464D0D28D10D0D07D100281FD018
:10223000241940414941013A0D0DF9D0640006D3FB
:10224000013000D30131002C01D140084000013A97
:102250000BD4941CE40A04D112051144DB07194481
:10226000F0BDD907204B194300E0D9070020F0BD8D
:102270000029DDD1002CDBD1F0BD0132C6074008BA
:10228000CD0728434908002EE1D0D9E73C2E29DAB2
:10229000203E40371400BC4000D00124F2401443DB
:1022A0001A00BB401C43D317ACE7AC46202F08DA1A
:1022B00020360400B4400D00B540F84039412843B1
:1022C000A5E73C2F0CDA203F40360400B44000D094
:1022D0000124F84004430800B1400C43C117EAE769
:1022E00010001900002494E70000F07FF0B50C0DF9
:1022F000661E3605891BE60A6405640D02D0651C5E
:10230000ED0A04D0002001210905803C2403A446E5
:102310001C0D671E3F05DB1BE70A6405640D02D038
:10232000651CED0A04D0002201231B05803C240318
:102330007740644497B484B296B27443070C7E43EA
:10234000150C6F4380B26843361802D30120000495
:102350003F183004350C00197D41844688B29AB28A
:1023600050430C0C62431F0C7C438EB27E43921987
:1023700002D301263604A4191604170C3618674137
:1023800001BC81B29AB25143040C62431B0C5C4302
:1023900080B25843121802D30120000424181004FC
:1023A000130C401863412D185E410020474106BCC4
:1023B00088B293B258430C0C6343120C544389B255
:1023C00051435B1802D301210904641819041A0C43
:1023D000091862416D1856410020474118BCF902A6
:1023E000720D1143F0026A0D1043ED020A0D03D184
:1023F0006D1940414941013B124E9B1B7600B3428F
:102400000ED26D0007D30130002671416646354378
:1024100001D1400840001B05C918E4072144F0BD64
:102420000BDA013306D1013004D101314F0D01D057
:102430004908F2E7E1070020F0BD01363105002030
:10244000EBE70000FF030000F0B51C0D671E3F0521
:10245000DB1BE70A6405640D02D0661CF60A04D093
:10246000002201231B05803C2403D0252D060026D5
:10247000F6432E661E096E66CE0FF619B446490065
:102480004F0D02D07E1CF60A03D000200021403FF1
:102490003F033E1BB600B444013F7F05C91B4908FA
:1024A0002E6F013676089C02950D25437543ED137A
:1024B0007543AD1301356D10F603761B0CB4CC02D9
:1024C000450D2C43A2B2B3B25A43270C7B43350CC3
:1024D0006F43A4B26C431B1902D3012424043F1997
:1024E0001C041D0CA4187D4124196D41009A91B261
:1024F000ACB26143170C7C432B0C5F4392B25A433E
:10250000A41802D301221204BF182204230C52186B
:102510007B41019C6C431B19520ED9010A434401B3
:10252000A01A81B2B2B2514303145A43360C73431A
:1025300087B27743D617D21900277E4136049B19FC
:102540001704160C7F185E417316ED18F301002670
:1025500080337541A90F06D16400690AE8055B0A5A
:10256000184309D22FE00422944480337541A90A0C
:10257000A8059B0A184326D3404149412404009AE8
:10258000019B0D005543641B4343E41A95B286B288
:102590007543170C7E43030C5F4392B25A43B6183F
:1025A00002D301221204BF183204330C52197B41AA
:1025B00052429C41002C02D400220130514140087B
:1025C000CA071043490802B06246D7079210084B69
:1025D000D218084B9A4203D212058918C919F0BDC6
:1025E0000020002A01DC3900F0BD01331905F5E7B0
:1025F000FD030000FE070000002200B5203200F0BD
:1026000004F8080000BD000000220B150AD410B524
:10261000944600F031F81414013400DA0021CB178D
:10262000144C20470020002170476244343A0CD4F7
:102630000C2A07DA04009140904052422032D440E4
:10264000214310BDD843D94310BD203207D40C46D6
:102650009440524220321141D040204310BD080026
:10266000C917203203D452422032104110BD180045
:10267000190010BD2B2600100A0DCC0F531E1B0590
:10268000C91A520503D3C943404200D30131520D48
:1026900003D0531CDB0A07D0121B00206400611C0E
:1026A00089078912803A1203014BD21A7047000041
:1026B000FF03000051434343C9188C46110C83B2F9
:1026C0004B4310B4040C614392B280B25043624356
:1026D0001C041B0C001910BC59411304120CC01827
:1026E0005141614470470000484041404840002348
:1026F0009C46114B5B68184700239C460E4B1B6899
:1027000018470E4A936F9B0804D200239C460A4B3D
:10271000DB681847F0B5146E556E576F166FFFF7EC
:10272000F4FF064A1466556657671667F0BD002326
:102730009C46014B9B681847E0050020000000D034
:10274000C10FC90700D54042002817D0F44603B492
:102750000B4B1B68984706BC81409E384042803135
:1027600007D20B0607D04900490AC00510430843A9
:1027700060470130F8E7490A8902F5E77047000031
:10278000DC05002070B513231E782A48FFF704F8F3
:102790000500012E11D0012E09DDAB1E1B789B0018
:1027A0007F2B40DD24488022290000F08BF823484D
:1027B000FEF7EAFF224B186070BD1F485422290023
:1027C00000F080F81F4B1A881F4B9A421CD1A72398
:1027D0009B011A881D4B9A4216D11D4B1A881D4B1E
:1027E0009A4211D11C4B1A8894239B019A420BD117
:1027F0001A4B1A881A4B9A4206D11A4B1A681A4B6E
:102800009A4201D1152307E01848FDF7C5FE184C80
:10281000094A99008C5001331F2BF8D9144B064AF2
:102820001362D361B7E7134B134A1448422101F0F6
:102830004DF9C04653460000E00500204C3300002F
:10284000DC050020EE290000C40F0000C20D0000CE
:10285000962B0000C0B50000182B0000CC2A000009
:1028600010B50000FC2C000051ED87648C42001074
:1028700081280010FC470010044B00103048001065
:1028800007B56046002800D100BE01880A0A023060
:10289000DF2AFAD1C9B2820804D302884088000432
:1028A000104300E00068024A5050039007BD00004A
:1028B000E005002001480421014B1847C002002018
:1028C000A9170010014B5B6818470000C0020020E8
:1028D000704710B5002802D00B684968984710BDB2
:1028E0000100002007E083001B185B00501C0860FB
:1028F0001078C01830380A681378303BDBB2092BE7
:10290000F1D97047F0B5DE4657464E464546E0B52C
:1029100083B093461F000C9B9A460D9C0E9B9946D4
:102920000F9B9B0717D0B8460F00060022E0551CEE
:102930004B4641462020B84701342A00B442F6D322
:102940003D004F465C46019B9B46B1464646B84615
:1029500037002E000EE00192A34688464E46B94647
:102960000700EBE7013C551C5346185D4346390010
:10297000B0472A00002CF5D135003E0047460F9B9A
:102980009B0711D4100003B0F0BCBB46B246A94669
:10299000A046F0BD541C4B4641462020B8472200BB
:1029A000531BB342F6D3EDE7B0464E46B9462F006F
:1029B0005D46F5E7F0B5CE46474680B585B094460E
:1029C00098460C9D0D9C0EAB1B789946109A119B56
:1029D000129EB7071CD4002B0CD0F7070AD54F4620
:1029E000002F02D10C37374204D0013B02E03027E0
:1029F0002F550134944201D21F2CF8D9F70707D57F
:102A00009C4205D21F2C03D830272F550134F5E7FF
:102A1000F70612D5770505D4002C03D0944221D0B7
:102A20009C421FD00F9A102A2FD00F9A022A36D01C
:102A30001F2C0AD830222A5501341F2C05D84A46AB
:102A4000002A32D02D222A55013403960293019494
:102A5000009543466246FFF755FF05B0C0BCB94636
:102A6000B046F0BD621E012C17D00F9F102F0BD067
:102A700014000F9A102AD8D1B206D6D51F2CD4D85C
:102A800058222A550134D3E7023CB206F1D41F2C58
:102A9000EFD878222A550134CAE71400C2E71F2C68
:102AA000D3D860322A550134C2E7720703D52B22EE
:102AB0002A550134C9E73207C7D520222A550134E7
:102AC000C3E7F0B5DE4657464E464546E0B593B0FF
:102AD00081468A46089209931CAB10CB1B789B4613
:102AE0001E9D219B9846002C03D1102342469A43F9
:102AF00090468023DB0046461E4042461A4218D0CC
:102B0000002C22D0002614E0424692061BD541211B
:102B1000C918C9B20A39C9B2771C0AAB995529003C
:102B20002000FEF78BFFAC4210D31F2F0ED83E00C3
:102B3000040029002000FEF781FFCBB2092BE3D867
:102B40003033D9B2E8E76121E2E727004346069334
:102B5000209B05931F9B049303955B46029301976B
:102B60000AAB0093099B089A51464846FFF722FF9B
:102B700013B0F0BCBB46B246A946A046F0BDF0B5C6
:102B8000DE4657464E464546E0B597B00A900B9153
:102B90000C929A46209B9946219F22AA13789B4625
:102BA000249B0993259C289B98464A463A4302D188
:102BB0001032934398468022D20045461540434642
:102BC00013420AD04A463A4341D000252E005346CC
:102BD0000D934D46099B9A4621E02E0053460D93D6
:102BE0004D46099B9A461AE04246920623D5412259
:102BF000D218D2B20A3AD2B2731C99460EAB9A5589
:102C00005246230028003900FEF756FFBC4220D868
:102C100013D04B461F2B16D84E4605000F005246C8
:102C2000230028003900FEF747FFD3B2092BDBD879
:102C30003033DAB2E0E76122DAE7AA45E9D94E4655
:102C40000D9B9A4608E04E460D9B9A4604E00026EE
:102C500002E04E460D9B9A4643460693279B0593FA
:102C6000269B0493099B03935B46029301960EAB4C
:102C7000009353460C9A0B990A98FFF79BFE17B0E6
:102C8000F0BCBB46B246A946A046F0BDF0B5DE4654
:102C900057464E464546E0B591B0804689460C926F
:102CA0009A461A9C1B9D22002B0020002900FFF74A
:102CB0008EF9002800D0F2E001225242D54B2000CC
:102CC0002900FFF77FF9002800D0E8E001225242F6
:102CD000D14B20002900FFF75FF9002800D0DEE08B
:102CE0000022002320002900FFF756F9002800D019
:102CF000EAE0069407958023DB001E9A1A400D92A5
:102D00001E9A1A4201D106231C93069807990200C5
:102D10000B000892099303000A00024300D1DFE090
:102D2000080D4005400DBD4EB4466044079E320379
:102D3000120B1E00BA4B13431F00FFF759F9B94A93
:102D4000B94BFFF7E6F8B94AB94BFFF7BBF8089063
:102D500009910022B74B30003900FFF7AAF8B64AB4
:102D6000B64BFFF7D6F802000B0008980999FFF759
:102D7000A9F8FFF755F98346FFF73AF906000F0067
:102D8000AF4AB04BFFF7C5F80022AF4BFFF79AF8F8
:102D9000FFF746F90890AD4AAD4B30003900FFF718
:102DA000B8F806000F000898FFF722F9A94AAA4BC5
:102DB000FFF7AFF802000B0030003900FFF779F899
:102DC00006000F0002000B00FFF7A3F80A900B911A
:102DD000089BA24A9446634400210022089109926C
:102DE0001B0509930023089332003B003000390093
:102DF000FFF768F80E900F9132003B000020802111
:102E0000C905FFF756F806000F000022944B0A98F8
:102E10000B99FFF760F80022924BFFF753F802007E
:102E20000B000A980B99FFF756F800228E4BFFF71C
:102E300049F802000B000A980B99FFF74CF80200C2
:102E40000B0030003900FFF73DF802000B000E9830
:102E50000F99FFF740F80022714BFFF733F8089AFB
:102E6000099BFFF756F806000F0008960997069A87
:102E7000079BFFF7A7F800280BD001235B429C4675
:102E8000E3440022774B30003900FFF724F8089024
:102E900009915B466333C62B45D8042623E01E9B6D
:102EA00004931D9B03931C9B02930094019553462E
:102EB0000C9A4946404600F0FBF811B0F0BCBB4606
:102EC000B246A946A046F0BD002100220691079215
:102ED000069480231B069C46AC44634607930AE78E
:102EE00000239B4604261E9B1B0528D5089A099B98
:102EF000190011430FD05D4A5D4B06980799FFF703
:102F000059F800287AD000225A4B06980799FFF703
:102F100043F8002872D01C9B5B4506DD5A469B1A7D
:102F2000013B1C9303E00526DDE700231C9380236F
:102F3000DB001E9A1A431E92002600239B461D9B0F
:102F40009E4265D29F1B02231E9A1A400A921E9A25
:102F5000134202D0002E00D000275B46002B07D082
:102F6000089A099B06980799FEF7B5FF0690079106
:102F70000022002320002900FFF70EF8002800D0CF
:102F80007CE03D4B1E9A1340049303971C9B0293D5
:102F9000069B079C0093019453460C9A4946404671
:102FA00000F086F8002E00D187E71E9B9B0671D5A6
:102FB0004525441C5346020049462800C0475A464E
:102FC000D317D2185A4005230593013E04960023D7
:102FD00003930A3302935B46DB0F0193009253463F
:102FE000220049464046FFF76CFD0A9B002B00D1AA
:102FF00063E7020047460C9E1D9D53E01C9B002B7F
:103000009DD00D9B002B9AD01C9B013B1C9396E7F7
:10301000002798E7FFFFEF7FFFFFEFFF01FCFFFFB7
:103020000000F03FFB799F501344D33FB3C8608B3F
:10303000288AC63F0000F83F61436F63A787D23FED
:1030400071A379094F930A400000E03F1655B5BBC4
:10305000B16B0240EF39FAFE422EE63FFF0300005B
:1030600000002C4000002440000018402D431CEBC1
:10307000E2361A3F80842E41FFF7FFFF069C079D32
:103080002200290080200006844661440B0006923D
:10309000079376E765258CE7541C53464946202064
:1030A000B8472200931BAB42F6D3100005E7C04699
:1030B000F0B5DE4657464E464546E0B595B006901B
:1030C000079193469946209F1E9A1F9B1000190056
:1030D000FEF77DFF002831D101225242BC4B1E98E1
:1030E0001F99FEF759FF002837D101225242B94BF0
:1030F0001E981F99FEF766FF00283DD10022B64BAF
:103100001E981F99FEF75EFF00284AD10022B34B9C
:103110001E981F99FEF740FF002842D1002200238D
:103120001E981F99FEF738FF00284AD100239846C1
:10313000229B5B0500D4B0E0002452E0229B039365
:10314000219B029303230193A54B00934B465A46C0
:1031500007990698FFF7D6FB08E1229B0393219B72
:103160000293042301939F4B00934B465A460799C1
:103170000698FFF7C7FBF9E0229B5B070ED59A4B39
:1031800004222299039121990291019200934B46C6
:103190005A4607990698FFF7B5FBE7E0934B0322E1
:1031A000EFE7229B0493219B039302971E9B1F9C96
:1031B000009301944B465A4607990698FFF766FD1F
:1031C000D4E01E9A1F9B00200021FEF772FE1E9085
:1031D0001F9101239846ABE70CAB30221A55013FF3
:1031E00001341F2C01D8092FF6D81E981F99FEF71D
:1031F00017FF0500FEF7FCFE02000B001E981F994A
:10320000FEF757FE7A4BFA009B181A685B680A9221
:103210000B93FEF77EFE08900991FEF725FF06004E
:10322000FEF7E2FE02000B0008980999FEF741FE46
:103230000890099100226F4BFEF7C4FE00282ED0A3
:1032400001363000FEF7D0FE02000B000A980B9901
:10325000FEF7A8FE002801D001350026002F2CD152
:103260002800FEF7C5FE02000B001E981F99FEF70E
:1032700020FE06000F0000225E4BFEF78DFE0028A8
:1032800046D100225B4B30003900FEF79BFE002840
:103290003ED1EB073CD501353AE006274CE700224A
:1032A000544B08980999FEF777FE0028D6D1002ED6
:1032B00001D0F307D2D50136D0E7AA461F2C11D88A
:1032C000013F0A213000FEF7B9FB651C30310CAB21
:1032D00019550A213000FEF7B1FB092E0ED9060060
:1032E0002C00EBE755461F2C0CD87B1E002F09D075
:1032F0000CAA302111551F000134F4E72B0055466C
:103300001C00F0E71F2C03D80CAB2E221A550134F9
:103310001F2C10D80A212800FEF768FB661C3031EC
:103320000CAB19550A212800FEF760FB051E01D0E1
:103330003400EDE734000323229A1340012B1CD004
:103340001F2C06D84346002B32D00CAB2D221A5529
:103350000134229B0393219B029301940CAB0093B5
:103360004B465A4607990698FFF7CCFA15B0F0BCC1
:10337000BB46B246A946A046F0BD219B002B13D008
:103380004346002B02D10C3313420FD0219B013B4B
:103390002193190003E00CAB30221A5501348C4202
:1033A000CED21F2CF7D9CBE72199F8E72199F6E780
:1033B000229B5B0704D50CAB2B221A550134C8E7BE
:1033C000229B1B07C5D50CAB20221A550134C0E740
:1033D000FFFFEFFFFFFFEF7F65CDCD4165CDCDC195
:1033E000084900100C490010FC4800100449001066
:1033F000184D00100000E03FF0B5DE4657464E463F
:103400004546E0B593B007008A46934611930029DC
:1034100000D12CE3002508E06C1C5B462A005146D5
:10342000B847119B013311932500119B1878002890
:1034300000D11EE32528EFD101331193002318009A
:1034400020E00123184301321192012418E00223E5
:10345000184301321192012412E00423184301326F
:10346000119201240CE00823184301321192012427
:1034700006E01023184301321192012400E00024D9
:10348000002C09D0119A1378203BD9B21029F6D814
:103490008B00C449CB589F468146119B1A78130074
:1034A000303BDBB2092B10D92A2A13D00B94119B85
:1034B0001A782E2A20D0119A1378683BD9B2122993
:1034C00065D88B00B849CB589F4611A8FFF708FA7A
:1034D0000B90ECE71C9B1A1D1C921B68002B04DB55
:1034E0000B93119B01331193E1E702220100114379
:1034F00089465B420B93F4E78022D2004946114390
:1035000089465A1C11925A781300303BDBB2092BC2
:103510000BD92A2ACFD11C9B1A1D1C921C68002C87
:1035200008DB119B01331193C5E711A8FFF7D8F908
:103530000400C0E70024F4E780235B0049460B4306
:10354000511C119151786C2901D099461FE0C0237C
:103550009B004946194389460232119217E08023A5
:1035600049460B43511C11915178682901D0994665
:103570000DE0C0234946194389460232119206E004
:1035800080235B0049461943894601321192119B01
:10359000187867281CD8252800D25EE20300253B56
:1035A000DAB2422A00D958E29300804AD3589F46A3
:1035B00080239B0049461943894601321192E6E770
:1035C00080235B0049461943894601321192DEE7A8
:1035D000782800D941E2692800D23EE20200693A27
:1035E000D2B201239340724A134210D11A0600D579
:1035F0000CE25B0500D430E21C9B1A1D1C921E6875
:10360000002C00D0BAE101225242330096E16F282B
:1036100042D005D8582841D0622803D1022606E0BE
:1036200078283DD010234A469A4391460A265828C6
:1036300038D0692805D0642803D00C224B46934328
:1036400099464B465A0502D501229343994669286B
:103650002DD064282BD04B469A0500D5AAE0DA0578
:1036600000D5C2E05A0600D4D3E01C9A111D1C916B
:103670001168FF220A404B4605930B9B0493039469
:1036800002960023019300925B462A0051463800BF
:10369000FFF717FA05002AE00826C8E71026C6E754
:1036A0001026C4E720224B4613439946C1E74B46F8
:1036B0009A0520D4DA0551D45A0666D51C9A111DF4
:1036C0001C911168FF220A40D017111841404B4647
:1036D00005930B9B049303940296D20F01920091E1
:1036E0005B462A0051463800FFF7EBF90500119BB5
:1036F0000133119399E61C9A073207218A4311007E
:1037000008311C91116853689C46DB170C930D938C
:103710000C9A0D9B100048400E900D9B61464B404B
:103720000F930E980F990C9A0D9B801A99410E9049
:103730000F914B4608930B9B079306940496002326
:1037400005936346DA0F0292009001915B462A00CE
:1037500051463800FFF713FA0500C8E71C9A111DFF
:103760001C911268D0171118414005930B9B0493CC
:1037700003940296D20F019200915B462A005146B3
:103780003800FFF79EF90500B1E71A0605D51C9A27
:10379000111D1C910023D25E96E71C9A111D1C91ED
:1037A000126891E7784B0010BC4B0010084C0010D9
:1037B000419000001C9A073207218A43110008310A
:1037C0001C9108930B9B0793069404960023059382
:1037D000029353681268009201935B462A00514697
:1037E0003800FFF7CCF9050081E71C9A111D1C91E8
:1037F00005930B9B04930394029600230193136893
:1038000000935B462A0051463800FFF75AF905003D
:103810006DE71A0606D51C9A111D1C911268120438
:10382000120C28E71C9A111D1C91126823E74628E8
:103830001AD01C9B0733072293431A0008321C92AC
:103840004A4604920B9A039202941A685B680092AB
:1038500001935B462A0051463800FFF729FC05001A
:10386000119B01331193E0E520234A461A43914608
:10387000DFE7672801D0472804D180231B014A468F
:103880001A439146452801D0472803D120234A46B0
:103890001A4391461C9B0733072293431A000832B0
:1038A0001C924A4604920B9A039202941A685B682F
:1038B000009201935B462A0051463800FFF7E6F973
:1038C0000500119B01331193AFE502234E461E40C4
:1038D0004A4613421ED001241C9B1A1D1C926A1CCE
:1038E000904618785B462A005146B847002E14D1FE
:1038F000119B01331193454697E5551C5B46514694
:103900002020B84723002A005C1C0B999942F4D868
:103910001500E1E701232A00F6E7424606E0561CBF
:103920005B4651462020B8472C003200651C0B9B9B
:10393000A342F4D89046DBE701330A001978002946
:1039400002D0511E002AF7D19B1B8022D20049468B
:10395000114088464946114202D0A34200D92300B3
:10396000022249461140109149460A4208D02A00D5
:10397000250099463B004746984626E0220044E64B
:10398000A1462A005146B2460E0006E0551C5B4691
:1039900031002020B84723002A005C1C0B99994273
:1039A000F4D8150022004C46330056469A469146FC
:1039B0002A0025003B004746984606E01D000136D8
:1039C000541C5B465146C04722003078002804D082
:1039D000002FF4D06B1E002DF0D115004B4647464A
:1039E000109A002A03D1119B013311931DE50B9E00
:1039F0002A0006E0551C5B4651462020B8472300AC
:103A00002A005C1C9E42F5D81500ECE721234A46AB
:103A10001A4313001C9A111D1C9112680593082368
:103A200004930394083302930023019300925B46AE
:103A30002A0051463800FFF744F80500119B013376
:103A40001193F2E46C1C5B462A0051462520B847CE
:103A5000119B013311932500E7E46C1C5B462A009F
:103A60005146B847119B013311932500DDE40A4FFD
:103A7000D0E45D450DD35B465A1E5B46514600209F
:103A8000B847280013B0F0BCBB46B246A946A046D2
:103A9000F0BD2A00F1E7C046D128001010B584B06F
:103AA0000C0002A902904C6001240448009313000A
:103AB0006242FFF7A1FC04B010BDC046D32800103D
:103AC00000BEFDE710B5FFF7FBFF000030B583B087
:103AD0000D001900002A0BD0074B084C01920093EF
:103AE0002B000200200000F061F90120FFF7E8FF41
:103AF000034B1A00F1E7C046144900102449001096
:103B00008C42001010B5EFF30583002B00D000BEEF
:103B1000FDF78AFE034C01E008CC9847024B9C421B
:103B2000FAD310BDFC4100100042001010B5030094
:103B3000080011001B68984710BD0000F8B5070089
:103B40000D001600437D002B02D0002400200CE065
:103B500003681100280098472DE03B7D10E03B688A
:103B6000154802219847601C0134B44214DA002C35
:103B7000F3DD2B19013B1B780D3B5A425341DBB25D
:103B80002A5D0A2AF0D1002BEED1A042E7DA3B6889
:103B9000211A28189847E2E7B04203DA3B68311A45
:103BA00028189847002E06DDAD19013D2B780D3BF6
:103BB0005A4253413B75F8BD684D001070B5050081
:103BC0000368002B16D00C4B1C6805E0290004C9C3
:103BD0002000FFF7B3FF2469002C09D02368002BD5
:103BE000F9D0064B1B68002BF0D0A342F3D1EDE7D0
:103BF00000232B6070BDC046AC040020B004002040
:103C000070B505000C000B68802B05D023685A1C8A
:103C10002260E418257170BD0800FFF7CFFFF5E7BB
:103C200010B5FDF7B7FB074A002312184B41002BD4
:103C300003DB054800F0BCFA10BD01225242034BE1
:103C4000F7E7C04640420F00F0020020FFFFFF7F71
:103C500010B5024800F094FA10BDC046F0020020F2
:103C6000F0B5CE46474680B583B006000D009046BD
:103C70001C00FFF7D5FF81466B1C05D0002C08D037
:103C8000184F194B1C6807E0300000F047FA050098
:103C9000F4E7164FF5E72469002C17D02368002BB2
:103CA000F9D0134B1B68002B01D0A342F3D12A009B
:103CB00031002000B8474346002BECD06B46D91D9D
:103CC0000A230B7001222000B847E4E74B46002B83
:103CD00005D1280003B0C0BCB946B046F0BDFFF71F
:103CE000B7FFF6E73D3B0010AC0400202D3B001071
:103CF000B00400200A4A136802E01A0010321B695F
:103D0000002B09D013688342F7D1002907D103693A
:103D100013600023036102E0002900D010607047A7
:103D2000AC04002010B5064B1C6800E02469002C90
:103D300004D06368002BF9D09847F7E710BDC04660
:103D4000AC04002010B500F043F9012010BD70B59F
:103D5000050000F0E3F9040001230122010028001E
:103D6000FFF77EFFFFF7DEFF200070BDF0B5A3B0C8
:103D700004000E00FFF754FF050001AF002301937C
:103D80000948330022003900FFF788FE040038009C
:103D9000FFF714FFFFF7C6FF002D02D1200023B06C
:103DA000F0BDFFF755FFF9E7013C00100FB400B577
:103DB00083B004A901C90191FFF7D8FF03B008BC83
:103DC00004B0184710B582B00C00144BC3185A4207
:103DD0005341134A5B009B5E8B4204D06B46DA1D55
:103DE0001470002115E06B46DA1D0D2313700021BD
:103DF0000029F3D183699B06FCD413780360013159
:103E00000132F5E783699B06FCD413780360013126
:103E100001320029F6D002B010BDC0460080FCBFC0
:103E2000E406002082B000226B46D91D06E08369BB
:103E3000DB06FCD403680B7001320131002AF6D096
:103E40006B46D87902B0704770B506000D000024AB
:103E500005E0315D034B1868FFF7B4FF0134AC4255
:103E6000F7DB70BDE8060020F8B506000D0000275E
:103E700005E07C1CF719FFF7D5FF38702700AF422B
:103E800004DA0D4A10688269D206F2D50B4A12682C
:103E9000002A0AD0084A126850219163506B1839E1
:103EA0000140074B9C4662441160002F01D038004E
:103EB000F8BD033FFBE7C046E80600207804002079
:103EC0003410000010B5064B1B68002B06D0054AC5
:103ED000126800219163044A1068984710BDC046DB
:103EE00078040020E80600207C040020024B1A68B9
:103EF00093691B07FCD47047E806002070B51D4B82
:103F00001B681D4A934207D0142400281ED01B4B67
:103F10001B68002B02D070BD1524F6E7174B186004
:103F2000174B196017492000FCF74AFC01212000BB
:103F3000FCF734FC0F4B1B6850229A63596B183AFC
:103F40000A4011498C4663441A60E4E70B4A126840
:103F5000002AE0D000259D6300212000FCF71EFC14
:103F600008492000FCF756FC044B1D60044B1D6003
:103F7000D1E7C046E8060020008003407804002016
:103F80007C040020C53E00103410000070B50D0008
:103F90001C000D4B1860002A0BDA002C0EDA0A4BBD
:103FA00018682900FDF79EFA08480121FFF7A2FED4
:103FB00070BD02211000FCF7D5FAEEE702212000C7
:103FC000FCF7D0FAEBE7C046E8060020D00200205C
:103FD00010B5074B1B78074B1B78074B1B78E1216B
:103FE0000123002249020548FFF7D0FF10BDC0465B
:103FF000D44D0010D04D0010CC4D001000400340B7
:1040000003BD10B50400FDF717FCA04710BDD02379
:104010001B061B6D9B07FAD5D0231B06586540BFB6
:10402000704700E020BFD0231B061B6DDB07F9D5CE
:10403000D0231B06986D7047F0B587B004000D00C3
:1040400017000F20FCF790FB060000210F20FCF763
:10405000A5FB00220092019201320292039704957F
:10406000059400250CE0D0231B069B6DD0231B0676
:104070001B6DDB07F7D440BF07E00135052D0DD8D8
:10408000AB006A469C58002CF0D02000FFF7BFFF21
:10409000FFF7C7FF8442F0D00025EFE731000F2083
:1040A000FCF77CFB07B0F0BD10B50C00930711D1F5
:1040B00003239A438B1819000C39094A9268086047
:1040C0001800083804600748043B18600648FFF7EA
:1040D000B3FF10BD054B064A06488921FFF7F6FCE1
:1040E00000ED00E00340001001400010E84900101E
:1040F000884D00109849001010B5064B064A9342AF
:1041000005D3190080221201FFF7CEFF10BD012157
:104110004942F7E7000804200000042010B5830797
:104120000AD00300032102E001330B4205D01A78C4
:10413000002AF9D1181A10BD030019680C4A0D4C59
:104140008A188A4322420FD15968094A04338A18CF
:104150008A43224208D15968054A04338A188A439F
:104160002242F1D000E001331A78002AFBD1E1E7C6
:10417000FFFEFEFE80808080F8B5C0460000000093
:1041800001B40248844601BC604700BFCD01002055
:1041900001B40248844601BC604700BF19020020F8
:1041A00001B40248844601BC604700BF19020020E8
:1041B00001B40248844601BC604700BF9901002059
:1041C0004918001075180010DD190010B5280010EE
:1041D000812000108527001011190010911800107F
:1041E000B1180010C5180010D90A0010CD18001021
:1041F000E51200102518001095060010B1020010FD
:104200005B464C4F41545D2043616368653A20250D
:1042100064207C2054696D653A20256C6C7520758E
:10422000730A00005B444F55424C455D2043616377
:1042300068653A202564207C2054696D653A202504
:104240006C6C752075730A000A5B4E4F2043414326
:1042500048455D2053657175656E7469616C2045D4
:104260007865637574696F6E00000000546F746147
:104270006C2073657175656E7469616C2074696D0D
:10428000653A20256C6C752075730A0A00000000E1
:104290005B4E4F2043414348455D20506172616C45
:1042A0006C656C20457865637574696F6E000000FD
:1042B000546F74616C20706172616C6C656C2074F9
:1042C000696D653A20256C6C752075730A0A0000CB
:1042D0000A5B434143484520454E41424C45445DBD
:1042E0002053657175656E7469616C2045786563EE
:1042F0007574696F6E0000005B434143484520457B
:104300004E41424C45445D20506172616C6C656C5D
:1043100020457865637574696F6E00000A2A2A2A41
:104320002050414E4943202A2A2A0A000A00000050
:1043300030783163203D3D20282A696E7374293E10
:104340003E313175000000002F55736572732F6D7B
:1043500061636E6368656573652F2E7069636F2D89
:1043600073646B2F73646B2F322E312E312F737267
:10437000632F7270325F636F6D6D6F6E2F68617245
:1043800064776172655F6972712F6972712E630063
:1043900064656C7461203E3D202D32303438202617
:1043A000262064656C7461203C3D20323034362018
:1043B000262620212864656C74612026203129007E
:1043C000212864656C7461203E3E203131752900DE
:1043D00063757272656E74203D3D205F5F756E6817
:1043E000616E646C65645F757365725F697271207C
:1043F0007C7C2063757272656E74203D3D2068611F
:104400006E646C6572000000216578636570746984
:104410006F6E207C7C20657863657074696F6E2098
:104420003D3D206E756D202B20565441424C455F1A
:1044300046495253545F49525100000066616C7303
:104440006500000069735F7368617265645F69721B
:10445000715F7261775F68616E646C657228736CFE
:104460006F745F68616E646C65722900657863655E
:104470007074696F6E000000666F756E64000000F6
:1044800031203D3D202875696E747074725F742907
:104490006C2D3E7370696E5F6C6F636B0000000083
:1044A0002F55736572732F6D61636E6368656573F5
:1044B000652F2E7069636F2D73646B2F73646B2F80
:1044C000322E312E312F7372632F636F6D6D6F6ECD
:1044D0002F7069636F5F73796E632F6D7574657884
:1044E0002E630000746F74616C0000006D74782D91
:1044F0003E636F72652E7370696E5F6C6F636B00E5
:104500006C6F636B5F69735F6F776E65725F696411
:104510005F76616C6964286D74782D3E6F776E6587
:10452000722900006D74782D3E656E7465725F634C
:104530006F756E7400000000706F6F6C2D3E7469B3
:104540006D65725F616C61726D5F6E756D203D3D72
:104550002074696D65725F616C61726D5F6E756DFF
:10456000000000002F55736572732F6D61636E63D9
:1045700068656573652F2E7069636F2D73646B2F8B
:1045800073646B2F322E312E312F7372632F636F52
:104590006D6D6F6E2F7069636F5F74696D652F74D9
:1045A000696D652E6300000064656661756C745FFB
:1045B000616C61726D5F706F6F6C5F696E69746959
:1045C000616C697A65642829000000004174746593
:1045D0006D7074656420746F20736C6565702069FC
:1045E0006E73696465206F6620616E20657863650F
:1045F0007074696F6E2068616E646C65723B2075C3
:10460000736520627573795F7761697420696620CC
:10461000796F75206D7573740000000048617264D5
:104620007761726520616C61726D20256420616C18
:10463000726561647920636C61696D656400000076
:1046400076636F5F66726571203E3D205049434F2F
:104650005F504C4C5F56434F5F4D494E5F4652454D
:10466000515F485A2026262076636F5F6672657117
:10467000203C3D205049434F5F504C4C5F56434FC8
:104680005F4D41585F465245515F485A0000000057
:104690002F55736572732F6D61636E636865657303
:1046A000652F2E7069636F2D73646B2F73646B2F8E
:1046B000322E312E312F7372632F7270325F636F1F
:1046C0006D6D6F6E2F68617264776172655F706C7B
:1046D0006C2F706C6C2E63006662646976203E3DC0
:1046E000203136202626206662646976203C3D20F3
:1046F0003332300028706F73745F64697631203E06
:104700003D203120262620706F73745F64697631F6
:10471000203C3D2037292026262028706F73745FA7
:1047200064697632203E3D203120262620706F734A
:10473000745F64697632203C3D2037290000000018
:104740007265665F66726571203C3D202876636FF6
:104750005F66726571202F20313629002A2828755E
:10476000696E74385F74202A29282828766F696456
:10477000202A29726F6D5F7461626C655F666C6F71
:104780006174292D322929202A2034203E3D2053CE
:10479000465F5441424C455F56325F53495A45008B
:1047A0002F55736572732F6D61636E6368656573F2
:1047B000652F2E7069636F2D73646B2F73646B2F7D
:1047C000322E312E312F7372632F7270325F636F0E
:1047D0006D6D6F6E2F7069636F5F646F75626C656E
:1047E0002F646F75626C655F696E69745F726F6D5F
:1047F0005F7270323034302E630000002A28287532
:10480000696E74385F74202A29726F6D5F746162FB
:104810006C652D3229202A2034203E3D2053465FEE
:104820005441424C455F56325F53495A450000009F
:104830002F55736572732F6D61636E636865657361
:10484000652F2E7069636F2D73646B2F73646B2FEC
:10485000322E312E312F7372632F7270325F636F7D
:104860006D6D6F6E2F7069636F5F666C6F61742F13
:10487000666C6F61745F696E69745F726F6D5F7291
:1048800070323034302E630044656275670000007A
:10489000626F6F74325F77323571303830000000EC
:1048A00068747470733A2F2F6769746875622E6329
:1048B0006F6D2F72617370626572727970692F709B
:1048C00069636F2D617070732F747265652F484531
:1048D00041442F6C6162732F6C61623037000000BD
:1048E000322E312E310000007069636F000000002D
:1048F0004D6172203235203230323500666E692BC0
:1049000000000000666E69006E616E00666E692DC3
:10491000000000002C2066756E6374696F6E3A208B
:1049200000000000617373657274696F6E20222548
:104930007322206661696C65643A2066696C652043
:10494000222573222C206C696E6520256425732531
:10495000730A00005541525420737464696E00005C
:1049600055415254207374646F757400554152540C
:1049700020737464696E202F207374646F757400E3
:10498000216C6F636B6F75745F696E5F70726F67B8
:1049900072657373000000002F55736572732F6D7D
:1049A00061636E6368656573652F2E7069636F2D33
:1049B00073646B2F73646B2F322E312E312F737211
:1049C000632F7270325F636F6D6D6F6E2F706963EE
:1049D0006F5F6D756C7469636F72652F6D756C7444
:1049E00069636F72652E63002128737461636B5F66
:1049F00073697A655F62797465732026203375293F
:104A0000000000006972715F6164645F7461696CC9
:104A10005F746F5F667265655F6C69737400000038
:104A2000696E736572745F626C5F33320000000000
:104A30006972715F72656D6F76655F68616E646CD7
:104A4000657200006D616B655F6A5F313600000062
:104A50007265736F6C76655F6A5F313600000000C7
:104A60006972715F7365745F6578636C757369767D
:104A7000655F68616E646C65720000006D757465D9
:104A8000785F6578697400006D757465785F656E30
:104A90007465725F626C6F636B5F756E74696C00D6
:104AA00072756E74696D655F696E69745F6D75743A
:104AB00065780000616C61726D5F706F6F6C5F672D
:104AC00065745F64656661756C740000616C617229
:104AD0006D5F706F6F6C5F6972715F68616E646C3F
:104AE00065720000706C6C5F696E69740000000094
:104AF0005F5F61656162695F646F75626C655F6964
:104B00006E6974005F5F61656162695F666C6F61A9
:104B1000745F696E6974000006005250D3F07542EC
:104B20008848001006005250E182887F90480010AB
:104B3000060052509A235618A04800100600525002
:104B4000ABB36053E048001006005250BBFF3CB6C8
:104B5000E848001006005250861C0302D848001096
:104B6000060052505422A29DF048001005005250F9
:104B7000DE65F46810500010663400107E340010BA
:104B80007E340010723400107E3400107E34001029
:104B90007E3400107E3400107E3400107E3400100D
:104BA0007E3400105A3400107E3400104E34001051
:104BB0007E3400107E340010423400105E35001048
:104BC0008E350010B03500108E35001038350010CD
:104BD0008E3500108E3500108E3500108E35001089
:104BE0008E3500108E3500108E3500108035001087
:104BF0008E3500108E3500108E3500108E35001069
:104C00008E350010C0350010443A00105A3A00109A
:104C10005A3A00105A3A00105A3A00105A3A001004
:104C20005A3A00105A3A00105A3A00105A3A0010F4
:104C30005A3A00105A3A00105A3A00105A3A0010E4
:104C40005A3A00105A3A00105A3A00105A3A0010D4
:104C50005A3A00105A3A00105A3A00105A3A0010C4
:104C60005A3A00105A3A00105A3A00105A3A0010B4
:104C70005A3A00105A3A00105A3A00105A3A0010A4
:104C80005A3A00105A3A0010723800102E380010AC
:104C9000723800105A3A00105A3A00105A3A00106E
:104CA0005A3A00105A3A00105A3A00105A3A001074
:104CB0005A3A00105A3A00105A3A00105A3A001064
:104CC0005A3A00105A3A00105A3A00105A3A001054
:104CD0005A3A00100E3600105A3A00105A3A001094
:104CE0005A3A00105A3A00105A3A00105A3A001034
:104CF0005A3A00105A3A00105A3A00100E36001074
:104D0000CA3800100E360010723800102E3800100D
:104D10007238001000000000000000000000F03FAA
:104D20000000000000002440000000000000594086
:104D30000000000000408F40000000000088C340D9
:104D400000000000006AF8400000000080842E414E
:104D500000000000D01263410000000084D797419A
:104D60000000000065CDCD410D0A00000600525044
:104D700053B4F4A16C490010080052501200000016
:104D800008005250921000006D756C7469636F7268
:104D9000655F6C61756E63685F636F7265315F77C5
:0C4DA0006974685F737461636B0000004D
:104DAC00184B0010244B0010304B00103C4B0010E3
:104DBC00484B0010544B0010604B00106C4B001013
:0C4DCC00804D0010784D00106C4D001060
:104DD80010B503000468EFF3108272B6206800284B
:104DE800FCD0BFF35F8F0420185600280BDB002986
:104DF80010D0086000201B68BFF35F8F0021196086
:104E080082F3108810BDD0210906097849B21971BA
:104E18000120F0E70020EEE7F0B5D6464F464646BB
:104E2800C0B50500904699460368002B20D0D023D2
:104E38001B061B785BB29A462F68EFF3108472B694
:104E48003E68002EFCD0BFF35F8F0423EB56002B87
:104E580014DB2B68BFF35F8F00221A6084F310887D
:104E68004046494600F064F80028E5D000200FE0ED
:104E78000A4B0B4A0B48A62100F062F853462B71E7
:104E88002B68BFF35F8F00221A6084F3108801201B
:104E9800E0BCBA46B146A846F0BDC046EC44001096
:104EA800884A0010A044001070B582B006001500B2
:104EB8001C0001A9FFF78CFF002807D1019B5BB2FA
:104EC800D0221206127852B2934201D102B070BDBC
:104ED8002A0023003000FFF79FFFF7E710B50168AD
:104EE800EFF3108372B60A68002AFCD0BFF35F8F15
:104EF80004228256002A0ADBFF2202710268BFF3ED
:104F08005F8F0021116083F3108840BF10BD034BF1
:104F1800034A0448D52100F013F8C04600450010A4
:104F28007C4A0010A04400107047C04600000000F2
:104F380001B40248844601BC604700BFC11100109B
:104F480001B40248844601BC604700BFCD3A001056
:104F58001000000000000000000001000000000038
:104F68000000000000000200000000000000000037
:104F78000000030000000000000000000000FF0027
:104F88000000000001B5486801318E4600477046B0
:104F980009380149884701BDA10900100000000037
:104FA80000000000000000000000000000000000F9
:104FB800F8020020000000000000000000000000CF
:104FC800503300004C3300005433000052330000CB
:104FD8004D5300004D43000053340000433400009B
:104FE800493E0010ED3E0010693E0010FD3E0010E5
:104FF80000000000000100000000000000000000A8
:085008000000000000000000A0
:04000005100001E9FD
:00000001FF
