:020000041000EA
:1000000000B5324B212058609868022188439860DF
:10001000D860186158612E4B002199600221596106
:100020000121F02299502B49196001219960352056
:1000300000F044F80222904214D00621196600F024
:1000400034F8196E01211966002018661A6600F04E
:100050002CF8196E196E196E052000F02FF8012189
:100060000842F9D1002199601B49196000215960AB
:100070001A491B48016001219960EB211966A021F2
:10008000196600F012F800219960164914480160C1
:100090000121996001BC002800D000471248134993
:1000A000086003C880F30888084703B5996A0420EC
:1000B0000142FBD001200142F8D103BD02B5186610
:1000C0001866FFF7F2FF186E186E02BD00000240BE
:1000D000000000180000070000035F00212200005C
:1000E000F4000018222000A00001001008ED00E03C
:1000F00000000000000000000000000074B24E7A12
:1001000000200420F7010010C3010010C5010010F9
:10011000C1010010C1010010C1010010C101001097
:10012000C1010010C1010010C1010010C701001081
:10013000C1010010C1010010C9010010CB01001065
:10014000CD010010CD010010CD010010CD01001037
:10015000CD010010CD010010CD010010CD01001027
:10016000CD010010CD010010CD010010CD01001017
:10017000CD010010CD010010CD010010CD01001007
:10018000CD010010CD010010CD010010CD010010F7
:10019000CD010010CD010010CD010010CD010010E7
:1001A000CD010010CD010010CD010010CD010010D7
:1001B000CD010010CD010010CD010010CD010010C7
:1001C00000BE00BE00BE00BE00BE00BE00F04BF888
:1001D000103800BEF2EB8871C41B0010E41B001045
:1001E0003402001090A31AE700202149086006C8D5
:1001F00081F3088810471F48006800282FD10DA4FC
:100200000ECC002902D000F012F8F9E71A491B4A77
:10021000002000E001C19142FCD1194988471949E9
:1002200088471949884700BEFDE701C901C29A42C3
:10023000FBD37047E41B0010C00000202C020020FC
:10024000501D00100000042000000420501D00106C
:1002500000100420001004200000000070470B482C
:1002600001F0BCF90047EFF30580C0B27047000011
:1002700008ED00E0000000D030020020F80500206A
:10028000C510001011030010B511001057560000E2
:1002900006005250ABB36053741B0010060052505E
:1002A000861C03026C1B0010060052505422A29DB3
:1002B000841B001005005250DE65F468501D0010CC
:1002C000F8B5C04606480749091A8B10C90FC91866
:1002D00010B5491003D0044B002B00D0984710BD37
:1002E0002C0200202C02002000000000054B10B55D
:1002F000002B03D00449054800E000BFFFF7E2FFF0
:1003000010BDC04600000000B4050020D81A00103F
:100310000020704770B5EFF3108C72B60D4D2B684E
:10032000002BFCD0BFF35F8F0724CB08C618C05C3E
:1003300001230C40A3401C000440034207D1184392
:100340003070BFF35F8F2C608CF3108870BD10008D
:1003500000F032FF2C0100D0024B18688007C00F5C
:100360007047C04600C006400021044B044ABFF35A
:100370005F8F02C39342FAD17047C046000100D09C
:10038000800100D0044A1078431CDBB2172B00D93F
:10039000102313707047C046700100200123834072
:1003A000002904D0034A1360034A13607047034ACC
:1003B0001360FBE780E200E000E100E080E100E0A4
:1003C000024B10309B688000C058704700ED00E081
:1003D00070B50D00EFF3108672B60F4A1368002B4C
:1003E000FCD0BFF35F8F0D4B10309B6884001B590E
:1003F0000B4A934203D09D4201D000F0F5FE074B1B
:100400009B681D51BFF35F8FBFF35F8F0022024BCC
:100410001A6086F3108870BD240100D000ED00E062
:10042000CD010010F0B5DE4657464E464546E0B5D4
:100430000C0083B0EFF3108A72B65F4A1368002B8A
:10044000FCD0BFF35F8F1022914681444A465B4B3C
:1004500096009B689D595A4B98469D4205D0A542EF
:1004600016D0584FEB1B2F2B14D9544B9B689D5122
:10047000BFF35F8FBFF35F8F00224F4B1A608AF389
:10048000108803B0F0BCBB46B246A946A046F0BDFA
:100490001D00EAE7012383409B465A464A4B1B68EE
:1004A0001A4000925A46494B1A60BFF35F8FFFF71C
:1004B000DAFE031E01901DD12A0001339A43906891
:1004C000844208D16FE04B005B189B00FB189868D2
:1004D000A04244D01A00062151560029F3DA844282
:1004E00068D0009B002B33D05A46394B1A60364BEC
:1004F0001A60BAE781452FD101232A009A439068F8
:100500008442E8D106215156130000293EDB4A00FF
:10051000501880003C188046A0689860E079D87137
:1005200006202056987100282EDBA488F81A64054E
:100530002415444400190005264C400D20439880A2
:100540005318254A9B001078FB1898711170C8E762
:100550005A461E4B1A6088E700F046FECCE706219B
:1005600059560029D3DA019900290FD1FF31917131
:100570001A49918018490A789A71194ADB1B5B4124
:100580005A43120D0A70ACE71448D8E7154A1649C9
:10059000D21A083A5002400D01439980134952087B
:1005A0000A43DA809DE70621515613000029AEDA8E
:1005B0004546DFE71300D6E7240100D000ED00E058
:1005C000CD0100107401002000E100E080E100E0B6
:1005D00080E200E000E0FFFFF505002000BDFFFF26
:1005E000AAAA0000AE01002000F0FFFF00F8FFFF04
:1005F000F8B5012504000543FFF735FEEFF3108C35
:1006000072B6214A1368002BFCD0BFF35F8F1F4ED8
:100610002100B7681E4A1F4B891A49414B431B0DE5
:1006200059B28300F858A8421CD00623D3568B42F7
:100630001CD01223D3568B4222D01E23D3568B427A
:1006400020D02A23D35603208B4210D0124B1A7885
:100650001970A271BFF35F8F00220B4B1A608CF3ED
:100660001088F8BDB2680D48D050EFE70020430075
:100670001B189B00D218FF239371094B9380E5E769
:100680000120F4E70220F2E7240100D000ED00E0B1
:1006900074010020AAAA0000F5050020CD01001079
:1006A00000BDFFFF054B064A1360064A1360536006
:1006B0009360D36013615361936170478080808041
:1006C00000E400E004E400E0024B9C466144890041
:1006D000016070474000003483680B4810B58446C1
:1006E000614462441201090159189B185C684A6808
:1006F0000120944201D802D00020C0B210BD1A6877
:100700000B689A42F9D8F7E7FFFFFF0FF8B5574695
:100710004E464546DE46E0B598460CAB1C780DAB20
:100720001B78070091469A460668002C57D1B47B87
:10073000002C3AD0650031682D19033D49194B78DA
:10074000B373002B00D1F37300238B704B700B70CD
:100750002D4BE218BB6812019B184A461A604246AC
:100760005A600A9A9A600B9ADA6000238B704B7079
:100770000B70737B9B46002B24D022007368594674
:10078000B06898475B465B0032685B44033B551991
:10079000D21800280FD05B46AB701378002B24D101
:1007A0005B46147073735C450DD0F0BCBB46B2461B
:1007B000A946A046F8BD94702B78002B00D053704A
:1007C0005B462B7074734A464346387D00F0E2F96D
:1007D000051E11D10E9B002BE7D01D70E5E76500CB
:1007E00031682D19033D4919B2E76B705B461470EF
:1007F00073735C45D9D1E6E75346002BEAD121005B
:10080000386800F007FCE5E7FFFFFF0FF0B5DE46B4
:1008100057464E4645468346E0B50027664B820064
:10082000D65891B000F066F9726806900791EFF320
:10083000108972B61368002BFCD0BFF35F8F30684D
:10084000437B9A46002B0DD17368BFF35F8F5246EE
:100850001A6089F3108811B0F0BCBB46B246A946B5
:10086000A046F0BDB268554B904653441B019844D6
:1008700043465C681B6825000A930B941C00069A8B
:10088000079BA41A9D41002D0DDD0A9A0B9B58462B
:1008900000F080F97368BFF35F8F1F6089F31088E1
:1008A0000028D8D0BEE7002D01D1002CEDD10021C9
:1008B00000F01AFB43465C681B680C930D9443469A
:1008C0009968DB680200984653465D1EF3680A91FA
:1008D000585D7368000202433261BFF35F8F1F608F
:1008E00089F310880029B6D0534641460A9C184324
:1008F000A047726808900991EFF3108972B61368E7
:10090000002BFCD00A94BFF35F8F0899099A002A44
:100910001DDB114302D03369002B35D13368D97BFD
:10092000002906D01A684800411852185146033A67
:1009300051705246DA73F268535D01335355736850
:100940003761BFF35F8F1F6089F310886AE73369EF
:10095000002BE3D00C9B0D9C5B1A94410C980D99D5
:100960001A002300A1421FD8994221D000210491EE
:100970000131039151460291414601910A9930009B
:100980000091FFF7C3FEDAE700F0B4F8089A099B7C
:100990000E900F910E980F9912184B41994203D85F
:1009A000E4D10E999142E1D901225242D317DDE7F9
:1009B0000C999142DAD9F7E7CC050020FFFFFF0F31
:1009C00010B5124C6368002B04D00A211048FFF7C1
:1009D0007BFE10BD23000F4A1021206800F08EF925
:1009E000032000F07BF8032000F042F903200A49BD
:1009F00000F08AF8FFF7C6FC084B9C4603236044CE
:100A00002375074B80006060DC60DEE7BC010020DE
:100A1000E0050020D90600100D0800104000003449
:100A2000CC050020F0B5D6464F464646C0B5EFF39C
:100A300005823F23134018001038EFF3108C72B674
:100A400020490A68002AFCD0BFF35F8F01221700FB
:100A500087401D4C1600A24667631C4C2578A046B3
:100A60002C00C4402640224215D05246566A184AED
:100A70008400A258964218D34246164BBD43E35811
:100A80001570BFF35F8F00220A608CF31088002B73
:100A900006D0984704E0BFF35F8F0E608CF3108898
:100AA000E0BCBA46B146A846F0BD0B4A9B00904652
:100AB00043441A681A60BFF35F8F00230B608CF306
:100AC0001088EDE7280100D000400540F605002021
:100AD000E405002058050020D03F054010B5034B29
:100AE00001001800024AFFF715FC10BDF4050020B4
:100AF000D81A0010034B596A0A00986A596A8A4248
:100B0000FAD170470040054070B504000D00EFF3C6
:100B1000108672B61A4A1368002BFCD0BFF35F8FA1
:100B2000002D1BD02000FFF74BFC164981420AD054
:100B30002000FFF74DFC01212000FFF72FFC0123CF
:100B4000A340114A1360114BA400E550BFF35F8F1F
:100B500000220B4B1A6086F3108870BD0121A14062
:100B60000A4BA200D5500A4B20001A788A43054947
:100B70001A70FFF757FC00212000FFF70FFCE5E794
:100B8000280100D0250A00103860054058050020D3
:100B9000F6050020F0B54F46D6464646C0B50700DC
:100BA0002E4C616A0D00A66A616AA942FAD18B4295
:100BB00008D805D00120E0BCBA46B146A846F0BD31
:100BC000B242F7D9EFF3108A72B6254801680029BE
:100BD000FCD0BFF35F8F0125BD4022491F4C8846E2
:100BE000097889462943C9B28C4641466046087057
:100BF000391D890065630A511B49B8004350216AB9
:100C00000020294219D0616A0800A66A616A8142FF
:100C1000FAD18B4219D801D1B24216D8CC450BD0AB
:100C20000E4B1F221D625D6301233A4093400F4A21
:100C3000136043464A461A700120BFF35F8F0022BB
:100C4000074B1A608AF31088B5E70020BFF35F8F67
:100C50000022034B1A608AF31088ACE7004005407D
:100C6000280100D0F6050020E405002080E200E025
:100C7000EFF3108C72B60A490B68002BFCD0BFF35F
:100C80005F8F01238340074A0748136202789A4323
:100C90000270BFF35F8F00230B608CF310887047E6
:100CA000280100D000400540F605002070B5060080
:100CB0000D00140000291CD0002A12D0736880682F
:100CC000984763006A0031681B195219033B033AC5
:100CD000CB188918002806D09D700A78002A0AD1FE
:100CE0000C70280070BD8C701A78002A00D04A70F1
:100CF0001D702000F6E75A700C70F2E710B58360A3
:100D00000023CCB243730133426004738373C47312
:100D10000068421C012C05D90133DBB21370033289
:100D20009C42F9D1FF230B405A00D318C01800236E
:100D30000338437010BDC046F8B5CE46474605009F
:100D40000C0080B5002907D04E0003687618033EDA
:100D50009A195778002F04D12000C0BCB946B0467C
:100D6000F8BD7900C9190339884643445978894642
:100D70000021597051706B683A00210080689847D3
:100D800043462A68D3189219002811D09C70117814
:100D9000002900D059701770270049462800FFF736
:100DA000CBFF390002002800FFF780FF0400D3E7E3
:100DB00097701978002900D051701C70EDE7C0467B
:100DC000F8B557464E464546DE464C00E0B5641839
:100DD00017000268033C0500105D13190E009C46C5
:100DE000002856D0430098461B18033BD318597867
:100DF0008A46002919D1002F0CD0EC7B002C54D04E
:100E000063001B19D318033B5E70EE734346191839
:100E10000339531800229A70002362465370F0BCC5
:100E2000BB46B246A946A046F8BD49005144033925
:100E3000521851788846002151708946597052469F
:100E400001002800FFF732FF43468246002B07D0FF
:100E50005B0029684344033BCB185A78002A2AD107
:100E6000424651462800FFF721FFA4462A680100A8
:100E70009444002F08D0EC7B002C04D063001B1995
:100E8000D318033B5E70EE730029C5D04B00984623
:100E9000BCE7002FC0D0E97B00290AD04B005B18CB
:100EA000D318033B5E70EE73B6E70022EE739A70C0
:100EB000B2E7EE73B0E7500080180338091848789D
:100EC000834648464870587041462800FFF7EEFEBA
:100ED000594680462800FFF72FFF414602002800B0
:100EE000FFF7E4FE8046BBE7F8B557464E46454659
:100EF000DE46E0B5467B02687500AD19033D0F0084
:100F0000515D531904009C46002957D04B00984668
:100F10005B18033BD3185878824600281BD1002F5A
:100F20000CD0E57B002D55D06B005B19D318033B2B
:100F30005E70E673434658180338131800229A70FF
:100F400000236246300053706173F0BCBB46B2466A
:100F5000A946A046F8BD4000504403381218507806
:100F60008046002050708146587052462000FFF79E
:100F70009DFE43468246002B07D05B002168434418
:100F8000033BCB185A78002A2AD14246514620000A
:100F9000FFF78CFEAC46226801009444002F08D075
:100FA000E57B002D04D06B005B19D318033B5E700A
:100FB000E6730028C4D043009846BBE7002FBFD09B
:100FC000C07B00280AD043001B18D318033B5E7077
:100FD000E673B5E70022E6739A70B1E7E673AFE710
:100FE00050008018033809184878834648464870EE
:100FF000587041462000FFF759FE594680462000B0
:10100000FFF79AFE414602002000FFF74FFE8046A0
:10101000BBE7C04670B5040000292CD0437B8B424F
:101020002ED0056848004018033828188278002A16
:1010300021D053009B18033BEA5CEE188A4202D190
:101040001BE0002A08D053009B18033BEB185A788A
:101050008A42F6D142785A7000230122837043708D
:101060002000FFF7ADFE617B02002000FFF71EFEAF
:101070006073012000E0002070BD43783370EBE71F
:1010800001221900FFF79CFEF2E7C04610B50400EC
:10109000FFF778F901002000FFF716FBFF2323710B
:1010A000BFF35F8F10BDC04610B50400FFF76AF9AB
:1010B00001002000FFF708FBFF23A380BFF35F8F31
:1010C00010BDC0462C4B2D4A70B51A602C4A2D4BD2
:1010D0002D491A6014008B689C43FBD12B4D2C4E7C
:1010E000B54208D2013E761BB60808CD98472300CA
:1010F0000134B342F9D100F07DF8264A214B1A6041
:10110000214A9368DB43DB01DD09002BF9D1402242
:10111000214B224C224E9A675A671A67DA66B4420C
:1011200008D223682000002B20D00834FFF7BCFF32
:10113000B442F6D31B4C1C4EC022B168200000F014
:1011400057FBB460FFF710F9FFF7ACFAFFF738FC74
:10115000164C174EB44208D2013E361BB60808CCD6
:1011600098472B0001359E42F9D170BD0834FFF736
:101170008DFFB442D5D3DDE700E00040BFCDFBFEDC
:10118000FE7F3C0000F0004000C00040180200203C
:1011900028020020FFFFFF0100F0014010020020A4
:1011A000180200200000002000ED00E028020020CE
:1011B0002C02002000BEFDE70FB400B5084883B044
:1011C00000F0C6FB049B002B07D005A91800019175
:1011D00000F0E4F9034800F0BBFB00BEFDE7C046A9
:1011E000FC1A00100C1B001010B50148FFF7E4FFBB
:1011F000101B001010B50C2082B000F0ABF9FFF707
:10120000ABF8002810D0864B86488649864A18607D
:1012100059609860D960186159619861D961186204
:1012200059625A6202B010BD804CA06700F09AF972
:1012300001227F4B1A60636C012BFCD103227D4B92
:101240001A607A4A936B012BFCD1013301217A4A4F
:101250007A480093043300F027F90523784A009375
:101260000121784800F020F9774B5A68FF2A02D80C
:10127000802252005A6080226E4B694C12011A6023
:101280002169002905D0606900F0DAF901300138E0
:10129000FDD1E0236C4A6D4811680B4003600223C6
:1012A0001168594001330B400421036093681942CF
:1012B000FCD08021664B090119608021654B4900F3
:1012C00051602361644B5A68FF2A00D85960032299
:1012D0000121574B1A60604A93681942FCD0E02301
:1012E000106803405D480360126803234A400221EE
:1012F0001340594A036093681942FCD08021584B2F
:10130000090119608021574B490051606361564BB8
:101310005A68FF2A00D859608022544B12011A6083
:10132000E169002905D0606900F08AF901300138CF
:10133000FDD1E0234C4A11680B404D490B608021E0
:101340004C4B090119608021364B49005160E36123
:10135000494B5A68FF2A00D859608022474B120136
:101360001A60216A002905D0606900F069F901302E
:101370000138FDD1E023404A11680B4040490B6021
:101380008021404B0901196080235B00536080225B
:10139000244BD20223623C4B5968914200D25A60DE
:1013A00080223A4B12011A60616A002905D06069F7
:1013B00000F046F901300138FDD1E023324A1168CE
:1013C0000B4033490B608021324B090119608023A7
:1013D000DB025360144B63622F4B5A68FF2A02D81A
:1013E000802252005A6080222C4B12011A60A1699F
:1013F000002905D0606900F023F901300138FDD1E2
:10140000E023254A11680B4025490B608021254BBC
:101410000901196080235B005360124BA36101E74F
:1014200030020020006CDC021BB70000008000408E
:101430003CB0004030B00040002F685900800240AE
:10144000008C864700C00240308000403090004051
:1014500030A00040001BB7003C8000403C900040A2
:101460003CA00040405973075480004054B00040F5
:101470005490004054A000406080004060B00040A4
:101480006090004060A000406C8000406CB0004064
:101490006C9000406CA000404880004048B0004084
:1014A0004890004048A00040F8B504000C20170008
:1014B0001E000D0000F0C4F843011B1A9901C91A5F
:1014C000C90009188901380000F0BAF8069B3704F2
:1014D0001B031F432368002B22DB1A4B1A4EE21812
:1014E000531E9A4180239B019C465242120B174B7C
:1014F000120362441A60164B1A601300B1688B43E2
:10150000FBD1C023221D9B01134321222560A06033
:101510001A602268002AFCDA0822E7601A60F8BD27
:101520003F2322681340AB42D7D1A3681B051B0D94
:101530008342D2D1EE22E368D2021340BB42CCD127
:10154000EDE7C0460040FDBF00C0004000E00040A5
:1015500000F000408023024A9B000343D36270479F
:1015600000800540AA23064A1B0113602F2305496A
:10157000D360054B19605368002BFCDA7047C046F6
:101580000040024000B0FA000060024010B50028A0
:1015900000D110BD00F08AF9FBE7C04610B5094A3A
:1015A0000300146884B0002C08D001220091064882
:1015B000524203A9A047012004B010BD00F0C8F9B1
:1015C0000020F9E7B00500208D1500100148042126
:1015D000014B1847F0010020FD150010002310B545
:1015E0000100988A1B8B984710BDC046162310B582
:1015F0000100188802331B88984710BDF8B547468C
:10160000CE4680B50F1E18D014239946043304002B
:101610000025012698464B461888434621681B88BA
:10162000984701C4431E984101350640AF42F2D1AC
:101630003000C0BCB946B046F8BD0126F8E7C04648
:10164000114A936F9B0813D210665166002905D08A
:10165000FFE7FFE7FFE7516F106F704704B5002801
:1016600001D00020C04300F01FFA002104BDC04695
:10167000F0B5146E556E576F166FFFF7E5FF1466E1
:10168000556657671667F0BD000000D0132370B58C
:101690001D78012D15D010DD1D48FFF7A7FF1D4C4B
:1016A00001008022200000F0A3F8022D2DD01A485E
:1016B000FFF794FF194B186070BD194B154CA364CC
:1016C000F5E7174B134C23606360A360E36023616D
:1016D0006361A361E36123626362A362E3622363E4
:1016E0006363A363E36323646364A364E3642365C4
:1016F0006365A365E36523666366A366E3662367A4
:101700006367A367E367A364D1E7054BA364CEE7F0
:1017100053440000580300204C330000DC05002037
:101720002517001007B5604601880A0A0230DF2A33
:10173000FAD1C9B2820804D3028840880004104359
:1017400000E00068014A5050039007BD5803002094
:10175000132310B512481C78FFF748FF0100012C35
:101760000AD003DD80220F4800F042F80E48FFF750
:1017700035FF0E4B186010BD0A4C5422200000F0BB
:1017800037F80B4B6365A365E36523666366A36661
:10179000E36623676367A367E3672362E361E5E7C3
:1017A00053460000580400204C330000DC050020A4
:1017B000B517001007B5604601880A0A0230DF2A13
:1017C000FAD1C9B2820804D30288408800041043C9
:1017D00000E00068014A5050039007BD5804002003
:1017E00001480421014B184700020020FD1500109C
:1017F000014B5B681847000000020020F0B5C646A8
:1018000000B5437C07000C001600002B46D0002AD0
:1018100017DD0B780A2B24D000239846012E13D015
:1018200001252900635C01350A2B26D0B542F8D189
:10183000464509DCA419013C23780D3B5A4253412B
:101840003B7480BCB846F0BD4346E018A419F11AB9
:10185000013C3B68984723780D3B5A4253413B7407
:10186000EFE7037C002BD7D102210F483B68984754
:10187000012EDFD001239846D2E7631E5B5C0D2B5F
:10188000D4D0884504DA4346C91AE0183B68984723
:10189000022105483B68A8469847C7E7036811003E
:1018A00020009847CDE7C046C01B0010F0B5CE46DB
:1018B000474680B583B06B46DE1CD02330701B06D4
:1018C0001C68204B804601A91800994600F0F4F8E6
:1018D000071E20D01C4B1C68002C29D01B4D02E099
:1018E000E468002C0FD02368002BF9D02B68002B64
:1018F00001D0A342F4D1200001223100FFF77EFF86
:10190000E468002CEFD1002F12D1404603B0C0BCD8
:10191000B946B046F0BD019B64B29C420CD048462B
:1019200000F0D2F8084B1C68002C01D00127D5E745
:10193000484600F0B1F8E8E7034B1C68002CCDD115
:10194000E3E7C04610020020A8050020AC050020F7
:10195000F0B5DE4645464E465746E0B583B0060034
:1019600000F06AF8D0231B061C68304B050001A963
:1019700018009B4600F0A0F8804600283DD02C4B74
:101980001C689A46002C47D00A232A4F994602E049
:10199000E468002C17D02368002BF9D03B68002B9B
:1019A00001D09C42F4D120002A003100FFF726FF2D
:1019B0006B464A4620001A7101A90122FFF71EFF5B
:1019C000E468002CE7D14346002B25D153461C6820
:1019D000002C06D06368002B0BD09847E468002CDD
:1019E000F8D1280003B0F0BCBB46B246A946A046D9
:1019F000F0BDE468002CEDD1F3E7019B64B29C429A
:101A00000ED0584600F060F8094B1C689A46002C2E
:101A100002D001239846B7E7584600F03DF8D5E7D5
:101A2000034B1C689A46002CAED1DAE71002002066
:101A3000A8050020AC05002010B583070AD00300DC
:101A4000032102E001330B4205D01A78002AF9D1B4
:101A5000181A10BD030019680C4A0D4C8A188A43E5
:101A600022420FD15968094A04338A188A43224214
:101A700008D15968054A04338A188A432242F1D0B2
:101A800000E001331A78002AFBD1E1E7FFFEFEFEF9
:101A900080808080F8B5C04601B40248844601BC0D
:101AA000604700BF4501002001B40248844601BCE4
:101AB000604700BF6D01002001B40248844601BCAC
:101AC000604700BF0501002001B40248844601BC04
:081AD000604700BFC1000020C7
:101AD800486172647761726520616C61726D20255E
:101AE8006420616C726561647920636C61696D65FD
:101AF800640000000A2A2A2A2050414E4943202A1D
:101B08002A2A0A000A00000048617264206173737F
:101B18006572740052656C6561736500626F6F74FD
:101B2800325F773235713038300000006874747075
:101B3800733A2F2F6769746875622E636F6D2F7201
:101B4800617370626572727970692F7069636F2D45
:101B5800617070732F747265652F484541442F6C0E
:101B68006162732F6C61623031000000312E342EB7
:101B7800300000007069636F000000004A616E2049
:101B8800333020323032350006005250D3F07542DF
:101B98001C1B001006005250E182887F241B001095
:101BA800060052509A235618341B00100600525053
:0C1BB800BBFF3CB67C1B00100D0A0000B7
:101BC400901B00109C1B0010A81B0010900200101A
:101BD400B41B00109C020010A8020010B4020010F4
:101BE400D02330B500251B0600245D5705E0BFF364
:101BF4005F8F1C6081F3108820BF0268EFF31081AF
:101C040072B61368002BFCD0BFF35F8F02790368B0
:101C14007F2AECD90571BFF35F8F00221A6081F32C
:101C2400108830BD03000068EFF3108C72B60268B0
:101C3400002AFCD0BFF35F8F04229A56002A0BDBE4
:101C4400002900D00A6000201B68BFF35F8F0022C8
:101C54001A608CF310887047D02212061268012093
:101C64001A71F1E70268EFF3108172B61368002B62
:101C7400FCD0BFF35F8FFF2303710368BFF35F8F53
:101C840000221A6081F3108840BF70477047C04635
:101C9400100000000000000000000100000000002F
:101CA400000000000000020000000000000000002E
:101CB4000000030000000000000000000000FF001E
:101CC4000000000000B5486801318E4600477046A8
:101CD40009380149884700BDF1050010D4010020EE
:101CE40000000000580200206805002000000000E9
:101CF4000000000078050020000000000000000043
:101D040010000000000000000000000000000000BF
:101D1400503300004C3300005433000052330000B1
:101D24004D5300004D430000533400004334000081
:101D34000000000000000000E1170010CD150010A5
:0C1D44008D16001051170010ED02001069
:04000005100001E9FD
:00000001FF
